:020000040800F2
:1000000038A3012061130008452A0008512A00087E
:10001000592A0008612A0008692A00080000000027
:100020000000000000000000000000007D2A000821
:10003000712A000800000000892A0008952A00089B
:10004000DD130008DD130008DD130008DD130008D0
:10005000DD130008DD130008DD130008DD130008C0
:10006000DD130008DD130008DD130008DD130008B0
:10007000DD130008DD130008DD130008DD130008A0
:10008000DD130008DD130008DD130008DD13000890
:10009000DD130008DD130008DD130008DD13000880
:1000A000DD130008DD130008DD130008DD13000870
:1000B000DD130008DD130008DD130008DD13000860
:1000C000DD130008DD130008DD130008DD13000850
:1000D000DD130008DD130008DD130008DD13000840
:1000E000DD130008DD130008DD130008DD13000830
:1000F000DD130008DD130008DD130008DD13000820
:10010000DD130008DD130008DD130008DD1300080F
:10011000DD130008DD130008DD130008DD130008FF
:10012000DD130008DD130008DD130008DD130008EF
:10013000DD130008DD130008DD130008DD130008DF
:10014000DD130008DD130008DD130008DD130008CF
:10015000DD130008DD130008DD130008DD130008BF
:10016000DD130008DD130008DD130008DD130008AF
:10017000DD130008DD130008DD130008DD1300089F
:10018000DD130008DD130008DD130008DD1300088F
:10019000DD130008DD130008DD130008DD1300087F
:1001A000ED2A0008DD130008F92A000880B582B0A6
:1001B00000AF4FF00003FB7140F28463C2F2000312
:1001C0001B78002B0CD040F28463C2F200031B7832
:1001D000012B02D14FF0010339E04FF0000336E06C
:1001E00000F05EF800F034FA4FF0000000F044F840
:1001F0000346BB804FF0000045F63C2100F02CF890
:100200004FF0000000F038F803467B80BB884FF0C9
:100210000000194600F020F87A8845F63C239A42FF
:1002200002D14FF00103FB71FB79012B07D140F2A2
:100230008463C2F200034FF001021A7006E040F23C
:100240008463C2F200034FF002021A70FB79184671
:1002500007F10807BD4680BD80B483B000AF786069
:100260000B467B807B6803F150437A881A8007F144
:100270000C07BD4680BC704780B485B000AF786085
:100280004FF00003FB817B6803F150431B88FB8127
:10029000FB89184607F11407BD4680BC704700BFB4
:1002A00080B582B000AF4FF07E004FF0010101F049
:1002B000E9FF4FF002033B714FF002037B714FF0F7
:1002C0000003BB714FF00003FB714FF48060C4F278
:1002D00002004FF005014FF00C0203F01DF94FF43E
:1002E0008060C4F202004FF006014FF00C0203F0F0
:1002F00013F94FF060033B603B464FF48060C4F25B
:100300000200194603F066F84FF40060C4F20200E0
:100310004FF000014FF00C0203F0FEF84FF0010324
:100320003B603B464FF40060C4F20200194603F004
:1003300051F84FF44060C4F202004FF000014FF05A
:100340000C0203F0E9F84FF44060C4F202004FF0F1
:1003500001014FF00C0203F0DFF84FF44060C4F2EB
:1003600002004FF008014FF00C0203F0D5F84FF4F3
:100370004060C4F202004FF009014FF00C0203F09C
:10038000CBF84FF44060C4F202004FF00A014FF086
:100390000C0203F0C1F84FF44060C4F202004FF0C9
:1003A0000E014FF00C0203F0B7F84FF44060C4F2B6
:1003B00002004FF00F014FF00C0203F0ADF84CF2C9
:1003C00003733B603B464FF44060C4F202001946A1
:1003D00003F000F84FF48050C4F202004FF0000127
:1003E0004FF00C0203F098F84FF48050C4F2020072
:1003F0004FF001014FF00C0203F08EF84FF48050E3
:10040000C4F202004FF007014FF00C0203F084F831
:100410004FF48050C4F202004FF008014FF00C027C
:1004200003F07AF84FF48050C4F202004FF0090153
:100430004FF00C0203F070F84FF48050C4F2020049
:100440004FF00A014FF00C0203F066F84FF48050B1
:10045000C4F202004FF00B014FF00C0203F05CF805
:100460004FF48050C4F202004FF00C014FF00C0228
:1004700003F052F84FF48050C4F202004FF00D0127
:100480004FF00C0203F048F84FF48050C4F2020021
:100490004FF00E014FF00C0203F03EF84FF4805085
:1004A000C4F202004FF00F014FF00C0203F034F8D9
:1004B0004FF683733B603B464FF48050C4F202001A
:1004C000194602F087FF4FF4A050C4F202004FF02B
:1004D00000014FF00C0203F01FF84FF4A050C4F2DB
:1004E00002004FF001014FF00C0203F015F84FF439
:1004F000A050C4F202004FF002014FF00C0203F0D2
:100500000BF84FF4A050C4F202004FF003014FF07B
:100510000C0203F001F84FF4A050C4F202004FF0B7
:1005200004014FF00C0202F0F7FF4FF4A050C4F2A8
:1005300002004FF005014FF00C0202F0EDFF4FF406
:10054000A050C4F202004FF00B014FF00C0202F079
:10055000E3FF4FF4A050C4F202004FF00C014FF043
:100560000C0202F0D9FF4FF4A050C4F202004FF089
:100570000D014FF00C0202F0CFFF4FF4A050C4F277
:1005800002004FF00E014FF00C0202F0C5FF4FF4D5
:10059000A050C4F202004FF00F014FF00C0202F025
:1005A000BBFF4FF63F033B603B464FF4A050C4F205
:1005B0000200194602F00EFF4FF4C050C4F20200D0
:1005C0004FF000014FF00C0202F0A6FF4FF4C050B4
:1005D000C4F202004FF001014FF00C0202F09CFF48
:1005E0004FF4C050C4F202004FF004014FF00C026F
:1005F00002F092FF4FF4C050C4F202004FF0050128
:100600004FF00C0202F088FF4FF4C050C4F2020019
:100610004FF008014FF00C0202F07EFF4FF4C05083
:10062000C4F202004FF00F014FF00C0202F074FF11
:1006300048F233133B603B464FF4C050C4F2020013
:10064000194602F0C7FE07F10807BD4680BD00BF8E
:1006500080B592B000AF4FF001004FF0010101F002
:100660003BFE4FF002033B604FF007037B604FF00F
:100670000403BB604FF00703FB604FF002033B61D4
:100680004FF002037B614FF00203BB614FF00103A7
:10069000FB614FF000033B624FF004037B624FF0BD
:1006A0001003BB624FF04003FB624FF4C0733B6327
:1006B0004FF000037B634FF40063BB634FF0000314
:1006C000FB634FF400533B643B467B6407F11C0320
:1006D000184603F02DFA00F005F807F14807BD466B
:1006E00080BD00BF80B586B000AF4FF000037B61D6
:1006F0004FF001037B604FF00803BB604FF0010334
:10070000FB604FF000033B6100BF4FF001004FF072
:10071000200103F025FB0346002BF6D107F104036B
:10072000184603F0E1FA4FF00A0000F075F84FF0B8
:1007300002037B604FF00803BB604FF00103FB60D6
:100740004FF000033B6100BF4FF001004FF020016C
:1007500003F006FB0346002BF6D107F1040318460D
:1007600003F0C2FA4FF003037B604FF00803BB6055
:100770004FF00403FB604FF000033B6100BF4FF0FC
:1007800001004FF0200103F0EBFA0346002BF6D1F5
:1007900007F10403184603F0A7FA00BF4FF0010069
:1007A0004FF0200103F0DCFA0346002BF6D107F1ED
:1007B0000403184603F098FA40F231237B614FF0AE
:1007C00004037B604FF00803BB604FF00103FB6044
:1007D0007B693B6100BF4FF001004FF0200103F047
:1007E000BFFA0346002BF6D107F10403184603F0C5
:1007F0007BFA40F2AB2003F09BFA00BF4FF0010000
:100800004FF0200103F0ACFA0346002BF6D107F1BC
:100810001807BD4680BD00BF80B485B000AF7860CA
:100820004FF00003FB607A6848F2A063C0F2010356
:1008300003FB02F3FB6003E0FB6803F1FF33FB60A3
:10084000FB68002BF8D107F11407BD4680BC704748
:1008500080B500AF40F6A810C2F200004FF4C831D6
:100860000EF038FC80BD00BF80B483B000AF78606C
:100870000B46FB70FB78002B0CD04FF43043C4F2D6
:1008800002034FF43042C4F2020211687A680A434C
:100890001A600DE04FF43043C4F202034FF43042CB
:1008A000C4F2020211687A686FEA02020A401A6012
:1008B00007F10C07BD4680BC704700BF80B582B011
:1008C00000AF40F28563C2F200031B78002B7AD19F
:1008D0004FF400004FF0010101F028FD40F2000349
:1008E000C2F200039B6818464FF0010101F0CAFCF8
:1008F00040F20003C2F200039B6918464FF0010169
:1009000001F0C0FC4FF400004FF0010101F062FD66
:100910004FF400004FF0000101F05CFD40F20003D5
:10092000C2F200031A6840F20003C2F200031B7B0C
:10093000104619464FF0040202F0EEFD40F20003AB
:10094000C2F200031A6940F20003C2F200031B7FE7
:10095000104619464FF0040202F0DEFD4FF002038C
:100960003B714FF002037B714FF00103BB714FF0FD
:100970000003FB7140F20003C2F200039B883B605E
:1009800040F20003C2F200031A683B4610461946C3
:1009900002F020FD40F20003C2F200039B8A3B609C
:1009A00040F20003C2F200031A693B4610461946A2
:1009B00002F010FD00F062FA40F28563C2F200031B
:1009C0004FF001021A7007F10807BD4680BD00BF55
:1009D00080B584B000AF02460B46FA71BB714FF090
:1009E00000037B814FF44053FB604FF4B840C4F2E6
:1009F00000004FF0010103F053FC4FF44053FB6043
:100A00000DE0FB68002B04D0FB6803F1FF33FB60B3
:100A100005E04FF0FF3000F05DFA034622E14FF4AD
:100A2000B840C4F200004FF00101C1F2000103F030
:100A3000F7FC0346002BE4D04FF4B840C4F20000AA
:100A40004FF0000103F08AFCFB794FF4B840C4F288
:100A5000000019464FF0000203F062FC4FF44053CF
:100A6000FB600DE0FB68002B04D0FB6803F1FF3353
:100A7000FB6005E06FF0010000F02CFA0346F1E0A6
:100A80004FF4B840C4F200004FF00201C1F200017F
:100A900003F0C6FC0346002BE4D04FF4B843C4F285
:100AA00000031B8B4FF44053FB600DE0FB68002BF1
:100AB00004D0FB6803F1FF33FB6005E06FF0020038
:100AC00000F008FA0346CDE04FF4B840C4F200004D
:100AD0004FF08001C1F2000103F0A2FC0346002B9D
:100AE000E4D0BB794FF4B840C4F20000194603F0DB
:100AF00079FC4FF44053FB600DE0FB68002B04D001
:100B0000FB6803F1FF33FB6005E06FF0030000F0CA
:100B1000E1F90346A6E04FF4B840C4F200004FF0FC
:100B20008001C1F2000103F07BFC0346002BE4D0FE
:100B30004FF4B840C4F200004FF00401C1F20001CC
:100B400003F06EFC0346002BD7D04FF4B840C4F23C
:100B500000004FF0010103F0A3FB4FF44053FB6092
:100B60000DE0FB68002B04D0FB6803F1FF33FB6052
:100B700005E06FF0040000F0ADF9034672E04FF4B9
:100B8000B840C4F200004FF00101C1F2000103F0CF
:100B900047FC0346002BE4D0FB794FF4B840C4F285
:100BA000000019464FF0010203F0BAFB4FF4405326
:100BB000FB600DE0FB68002B04D0FB6803F1FF3302
:100BC000FB6005E06FF0050000F084F9034649E0A2
:100BD0004FF4B840C4F200004FF00201C1F200012E
:100BE00003F01EFC0346002BE4D04FF4B843C4F2DC
:100BF00000031B8B4FF44053FB600DE0FB68002BA0
:100C000004D0FB6803F1FF33FB6005E06FF00600E2
:100C100000F060F9034625E04FF4B840C4F200004C
:100C20004FF04001C1F2000103F0FAFB0346002B34
:100C3000E4D04FF4B840C4F200004FF0010103F0DB
:100C40004FFB4FF4B840C4F2000003F0DBFB034657
:100C50007B814FF4B840C4F200004FF0010103F073
:100C60007DFB7B891BB2184607F11007BD4680BD8E
:100C700080B584B000AF13460246FA710A46BA71D5
:100C80007B714FF000037B814FF44053FB604FF4C6
:100C9000B840C4F200004FF0010103F001FB4FF433
:100CA0004053FB600DE0FB68002B04D0FB6803F1B0
:100CB000FF33FB6005E04FF0FF3000F00BF9034617
:100CC000C0E04FF4B840C4F200004FF00101C1F29F
:100CD000000103F0A5FB0346002BE4D0FB794FF4A1
:100CE000B840C4F2000019464FF0000203F018FBB0
:100CF0004FF44053FB600DE0FB68002B04D0FB6811
:100D000003F1FF33FB6005E06FF0010000F0E2F853
:100D1000034697E04FF4B840C4F200004FF00201E0
:100D2000C1F2000103F07CFB0346002BE4D04FF43A
:100D3000B843C4F200031B8B4FF44053FB600DE03B
:100D4000FB68002B04D0FB6803F1FF33FB6005E078
:100D50006FF0020000F0BEF8034673E04FF4B840B5
:100D6000C4F200004FF08001C1F2000103F058FB13
:100D70000346002BE4D0BB794FF4B840C4F2000026
:100D8000194603F02FFB4FF44053FB600DE0FB6866
:100D9000002B04D0FB6803F1FF33FB6005E06FF02C
:100DA000030000F097F803464CE04FF4B840C4F25B
:100DB00000004FF08001C1F2000103F031FB034657
:100DC000002BE4D07B794FF4B840C4F20000194600
:100DD00003F008FB4FF44053FB600DE0FB68002B71
:100DE00004D0FB6803F1FF33FB6005E06FF0040003
:100DF00000F070F8034625E04FF4B840C4F200005C
:100E00004FF08001C1F2000103F00AFB0346002B02
:100E1000E4D04FF4B840C4F200004FF00401C1F236
:100E2000000103F0FDFA0346002BD7D04FF4B84081
:100E3000C4F200004FF0010103F052FA4FF000033A
:100E40007B817B891BB2184607F11007BD4680BD28
:100E500080B483B000AF786000BF7B68002B0CBF0C
:100E600000220122D2B203F1FF337B60002AF4D1C9
:100E700007F10C07BD4680BC704700BF80B584B049
:100E800000AF4FF00003BB804BF6FF73FB804FF0C9
:100E900000033B814FF480637B814FF48043BB812F
:100EA00048F2A063C0F201033B604FF4B840C4F2C3
:100EB00000004FF0010103F0D3F93B464FF4B84076
:100EC000C4F20000194603F0F5F807F11007BD461B
:100ED00080BD00BF80B584B000AF0346FB80FB88B7
:100EE000FB814FF4B840C4F200004FF0010103F061
:100EF000F7F94FF4B840C4F200004FF0010103F0DD
:100F00004DFA4FF4B840C4F200004FF0000103F076
:100F100045FA4FF4B840C4F2000003F087F8FFF739
:100F2000ADFFFB891BB2184607F11007BD4680BD17
:100F300080B489B000AF78604FF00003FB614FF0E0
:100F40000003BB614FF000037B614FF000033B6186
:100F50004FF00003FB604FF00003BB604FF4D04242
:100F6000C4F201024FF4D043C4F2010399684FF474
:100F70007843CFF200030B4093607B681B694FEA14
:100F80000343FB614FF4D043C4F201034FF4D0425A
:100F9000C4F2010291687A685069FA6902430A430F
:100FA0009A604FF4D042C4F201024FF4D043C4F22D
:100FB0000103D9684FF47843CFF200030B40D360AC
:100FC0007B689B694FEA0343BB614FF4D043C4F293
:100FD00001034FF4D042C4F20102D1687A68D069AB
:100FE000BA6902430A43DA604FF4D042C4F2010204
:100FF0004FF4D043C4F2010319694FF47843CFF2A0
:1010000000030B4013617B681B6A4FEA03437B615B
:101010004FF4D043C4F201034FF4D042C4F20102B2
:1010200011697A68506A7A6902430A431A614FF477
:10103000D042C4F201024FF4D043C4F20103596913
:101040004FF47843CFF200030B4053617B689B6AF7
:101050004FEA03433B614FF4D043C4F201034FF422
:10106000D042C4F2010251697A68D06A3A690243F7
:101070000A435A614FF4D042C4F201024FF4D04304
:10108000C4F20103996948F68F03C0F6FE730B4062
:1010900093614FF4D043C4F201034FF4D042C4F241
:1010A000010291697A6810687A68526810437A6818
:1010B000926810437A68D26802430A439A617B6857
:1010C0005B6B4FEA0323FB607B681B6B4FEA0343B8
:1010D000BB604FF4D043C4F201034FF4D042C4F2DA
:1010E0000102D26A02F07F42DA624FF4D043C4F2C6
:1010F00001034FF4D042C4F20102D16AB868FA6821
:1011000010437A68926B02430A43DA6207F12407BC
:10111000BD4680BC704700BF80B483B000AF0346BB
:10112000FB71FB79002B0CD04FF4D043C4F20103C8
:101130004FF4D042C4F20102926942F001029A6176
:101140000BE04FF4D043C4F201034FF4D042C4F299
:101150000102926922F001029A6107F10C07BD4673
:1011600080BC704780B483B000AF78604FF4D04348
:10117000C4F201037A685A6207F10C07BD4680BCCD
:10118000704700BF80B489B000AF786039604FF01D
:101190000003FB614FF00003BB614FF000037B6174
:1011A0004FF000033B614FF00003FB604FF0000382
:1011B000BB603B685B684FEA0343FB617B685B682D
:1011C00003F470427B685A603B681A68FB691A43F3
:1011D0007B685A603B68DB684FEA0343BB617B680E
:1011E0009B6803F470427B689A603B689A68BB69AD
:1011F0001A437B689A607B681B6923F007027B684F
:101200001A613B681A697B681A613B68DB694FEABF
:1012100003237B613B681B6A4FEA03433B613B68E6
:101220005B6A4FEA0363FB607B689B697B684FF0F6
:1012300000029A613B689A697B691A433B691A43C9
:10124000FB681A437B689A617B685B6923F0FF0245
:101250007B685A613B685A697B685A617B68DB69C5
:1012600023F4E06323F007037A68D3613B689A6A4A
:101270003B68DB6A1A437B68DA617B689B6A7B6840
:101280004FF000029A623B681A6B7B689A623B6877
:101290009B6B4FEA0343BB607B68DB6A03F0E02291
:1012A0007B68DA623B685A6BBB681A437B68DA6218
:1012B0007B681B6B23F4FF6323F007037A681363D7
:1012C0003B68DA6B7B681A6307F12407BD4680BC74
:1012D000704700BF80B483B000AF78600B46FB70EE
:1012E000FB78002B06D07B681B6843F001027B680B
:1012F0001A6005E07B681B6823F001027B681A60B6
:1013000007F10C07BD4680BC704700BF80B483B0B6
:1013100000AF78600B46FB70FB78002B0CD04FF4CD
:10132000D043C4F201034FF4D042C4F20102516B26
:101330007A680A435A630DE04FF4D043C4F20103C4
:101340004FF4D042C4F20102516B7A686FEA020294
:101350000A405A6307F10C07BD4680BC704700BFC6
:1013600080B582B000AF48F21C43C0F601037B6039
:1013700040F20003C2F200033B600BE07B681A6896
:101380003B681A603B6803F104033B607B6803F130
:1013900004037B603A6840F28463C2F200039A421D
:1013A000ECD30B480B494FF000028842B8BF40F81D
:1013B000042BFFF6FAAFDFF82000016841F470015A
:1013C000016000F027F907F10807BD4680BD000065
:1013D00084060020389B012088ED00E080B400AF37
:1013E000FEE700BF80B483B000AF03463960FB71F5
:1013F00097F90730002B10DA4FF46D43CEF200035B
:10140000FA7902F00F02A2F104013A68D2B24FEA6F
:101410000212D2B25B181A760DE04FF46143CEF29D
:10142000000397F907103A68D2B24FEA0212D2B21B
:101430005B1883F8002307F10C07BD4680BC70479A
:1014400080B582B000AF78607B6803F1FF326FF047
:101450007F439A4202D94FF001031DE04EF2100380
:10146000CEF200037A6802F1FF325A604FF0FF308B
:101470004FF00F01FFF7B6FF4EF21003CEF200035C
:101480004FF000029A604EF21003CEF200034FF0CC
:1014900007021A604FF00003184607F10807BD461F
:1014A00080BD00BF80B584B000AF4FF480504FF0D6
:1014B000010100F0E7FE3B46184600F0DBFD7A68CC
:1014C00044F6D353C1F26203A3FB02134FEA931312
:1014D0001846FFF7B5FF01F015FB49F6C013C2F23D
:1014E00001034FF000021A6003F02AFF0346012BAC
:1014F00002D04FF0000309E00DF0F2F90346002B93
:1015000002D04FF0000301E04FF00103184607F14D
:101510001007BD4680BD00BF80B584B000AF03F0AA
:1015200035FF49F6C013C2F201031B68002B0CD132
:1015300049F6B413C2F201035B887B6049F6B41329
:10154000C2F201039B88BB603FE049F6C013C2F2C0
:1015500001031B68012B0ED149F6B413C2F201033B
:101560005B88C3F1EF03BB6049F6B413C2F2010319
:101570009B887B6029E049F6C013C2F201031B6817
:10158000022B12D149F6B413C2F201035B88C3F1F6
:10159000EF037B6049F6B413C2F201039B88C3F5E5
:1015A0009F7303F10103BB600FE049F6B413C2F26D
:1015B00001035B88BB6049F6B413C2F201039B8848
:1015C000C3F59F7303F101037B6049F6B413C2F2C4
:1015D00001031B78002B14BF00230123DBB23B73F4
:1015E0003A7B40F28663C2F200031B789A420DD028
:1015F0003A7B40F28663C2F200031A704FF0000398
:101600007B7307F1040318460BF0F0FE07F1100797
:10161000BD4680BD80B500AF01F0D2FFFFF742FFAD
:1016200000F0BEFCFEE700BF80B500AF4FF0000049
:1016300001F034F903461A464CF6CD43CCF6CC43C0
:10164000A3FB02134FEAD3039BB29AB240F29C630E
:10165000C2F200035A8040F28863C2F200035A6863
:1016600040F29C63C2F200035B881BB2104619462D
:1016700005F0B0F880BD00BF90B58FB002AF7860C4
:1016800039603B68022B3FD145F2A863C0F60103E5
:1016900007F11C040FCB84E80F0046F2D850C0F6C7
:1016A00001000BF0D3FE0CF0CDF8F86207F1140343
:1016B000184607F0A1F907F10C037868194607F0FE
:1016C0002BF9BB8A9AB2FB6A9BB2D3189BB29BB22E
:1016D0003B834FF6FF700BF0E7FE07F11C03184643
:1016E00013F07AFE03461C4607F11C0107F11402B1
:1016F00040F2E013C2F200030093084611464FF097
:10170000020223460CF00EFD07F13407BD4690BDE2
:1017100080B584B000AF786039603B681B68FB60BF
:10172000786807F071F9B860BB68B3F5087F14D02A
:10173000BB68B3F5B87F10D0BB68FE2B0DD0BB687B
:10174000FF2B0AD0FB68002B03D0786807F001F864
:1017500004E0786806F0A1FC00E000BF07F1100784
:10176000BD4680BD90B58BB002AF786078684FF40D
:10177000087107F090F9F86178684FF4B87107F0D4
:101780008AF9B86140F2A863C2F200031B6883F0D3
:10179000010240F2A863C2F200031A6040F2A8639B
:1017A000C2F200031B68002B54D0786807F084F95C
:1017B0007861B86945F2B861C0F6010106F0D2FB64
:1017C000B8694FF000014FF00B0206F0A2FF7868F5
:1017D0004FF0000105F0DDFC07F10C0378691946B4
:1017E00007F0FFF8F86940F2AC61C2F2000107F0BF
:1017F0002BF8786941F21171C0F6000140F2A8623D
:10180000C2F2000207F093F9786907F05DF8044628
:10181000786907F059F802463B8A1BB2798A09B207
:101820000091F869214606F04BFC40F29863C2F241
:1018300000031A687B8A1BB2A3F1140310461946F1
:1018400004F0BFFE03461A4640F2B463C2F200033E
:101850001A605EE0B86945F28841C0F6010106F001
:1018600081FBB8694FF000016FF00A0206F051FFEA
:10187000786807F021F90346184641F21171C0F665
:10188000000140F2A862C2F2000207F050F940F2F3
:10189000AC63C2F200031B8819B240F2AC63C2F21F
:1018A00000035B881AB240F2AC63C2F200039B886B
:1018B00018B240F2AC63C2F200031B881BB2C31A19
:1018C00003F1010440F2AC63C2F20003DB8818B2FA
:1018D00040F2AC63C2F200035B881BB2C31A03F18F
:1018E00001030093F869234606F0EAFB78684FF09D
:1018F000010105F04EFC40F29863C2F200031A6841
:1019000040F2B463C2F200031B681046194604F0AB
:1019100058FE07F12407BD4690BD00BFF0B58BB05F
:1019200002AF78607B685B68BB617B681B681D2BBE
:1019300003D0262B00F041812AE3B8694FF40871E7
:1019400007F0A9F878614FF00003FB6142E013F063
:10195000C1FC034646F2B702CBF20B6282FB0312D4
:10196000D2184FEAE2114FEAE3728A1A4FF0B4013B
:1019700001FB02F29A1A91B240F29C63C2F2000398
:10198000FA6923F8121040F22003C2F20003FA6948
:1019900053F8223018464FF4FA714FF000024FF01E
:1019A000000304F0D9FE014640F28863C2F200034E
:1019B000FA6943F8221040F28863C2F20003FA6920
:1019C00053F822307869194605F0F6FAFB6903F1FD
:1019D0000103FB61FB69022BB9D978694FF019014A
:1019E00005F038FB78694FF0010105F007FB7869D5
:1019F0004FF0010105F0AEFB786941F27961C0F664
:101A0000000105F059FBB8694FF4917107F043F8F4
:101A10007861786945F2C061C0F6010106F00FF8FF
:101A2000B86940F2231107F036F87861786945F219
:101A3000C461C0F6010106F002F8B8694FF4927172
:101A400007F029F87861786945F2C861C0F60101AC
:101A500005F0F5FFB86940F2251107F01CF8786130
:101A6000786945F2CC61C0F6010105F0E8FFB8697C
:101A70004FF4907107F00FF87861786945F2D06102
:101A8000C0F6010105F0DBFFB86940F2211107F053
:101A900002F87861786945F2D861C0F6010105F075
:101AA000CEFF78694FF0010105F0EBFFB8694FF404
:101AB000937106F0F0FF7861786945F2E061C0F655
:101AC000010105F0BCFF78694FF0010105F0D9FF75
:101AD000B86940F2271106F0DEFF7861786945F2B7
:101AE000E861C0F6010105F0AAFFB8694FF49471EE
:101AF00006F0D1FF7861786945F2F061C0F6010126
:101B000005F09DFFB8694FF4987106F0C4FF786145
:101B100078694FF000014FF00A0204F009FA786981
:101B20004FF0050104F02EF978694FF0060104F03A
:101B30001CFAB86940F2311106F0ADFF786178699E
:101B40004FF000014FF0140204F0F2F978694FF001
:101B5000050104F017F978694FF0060104F005FA61
:101B6000B8694FF4A87106F096FF7861786945F27C
:101B7000F861C0F601014FF0000204F017FA78692D
:101B800045F2FC61C0F601014FF0010204F00EFACB
:101B9000786945F20471C0F601014FF0020204F0C9
:101BA00005FAB8694FF4B87106F075FF7861786985
:101BB0004FF0010106F03CFAEDE17B689B681846A6
:101BC00006F022FF38617B68DB68FB60FB68012B55
:101BD00002D0052B09D0DAE13B69B3F5B87F03D118
:101BE000B869FFF7BFFD00BFD1E13B69A3F5907372
:101BF000302B00F2CB8101A252F823F0C11C000867
:101C0000DB1C0008051D0008051D0008051D000857
:101C1000051D0008791E0008B51E0008F11E000809
:101C20008D1F00088D1F00088D1F00088D1F0008E4
:101C30008D1F00088D1F00088D1F00089B1D0008C8
:101C4000E11D00088D1F00088D1F00088D1F000872
:101C50008D1F00088D1F00088D1F00088D1F0008B4
:101C60008D1F00088D1F00088D1F00088D1F0008A4
:101C70008D1F00088D1F00088D1F00088D1F000894
:101C80008D1F00088D1F00088D1F00088D1F000884
:101C90008D1F00088D1F00088D1F00088D1F000874
:101CA0008D1F00088D1F00088D1F00088D1F000864
:101CB0008D1F00088D1F00088D1F0008231E0008BF
:101CC00040F2A463C2F200031B6883F0010240F2F9
:101CD000A463C2F200031A6058E1B8694FF40871B6
:101CE00006F0D9FE7861B86940F2211106F0D3FE02
:101CF0000346184605F0E2FE03467869194605F0EA
:101D00007DF943E1B8694FF4087106F0C4FE7861CB
:101D1000B8694FF4917106F0BEFE0346184605F00F
:101D2000CDFE024613464FEA83039B184FEAC303D6
:101D30001E46B86940F2231106F0ADFE0346184670
:101D400005F0BCFE024613464FEA83039B181D466E
:101D5000B8694FF4927106F09EFE0346184605F0EE
:101D6000ADFE024613464FEA83039B181C46B86932
:101D700040F2251106F08FFE0346184605F09EFE40
:101D8000024613464FEA83039B1800937869314655
:101D90002A46234605F073F9F8E0B8694FF4087154
:101DA00006F079FE78617B689B68184604F0F0F8CD
:101DB000024613464FEA83039B184FEA4303BB6076
:101DC000BB687869194605F030F940F29863C2F2B1
:101DD00000031A68BB681046194604F0DFFBD5E023
:101DE000B8694FF4087106F056FE78617B689B680D
:101DF000184604F0CDF8024613464FEA83039B18B9
:101E0000BB60BB687869194605F024F940F2946319
:101E1000C2F200031A68BB681046194604F0BEFB04
:101E2000B4E0B8694FF4087106F035FE78617B685C
:101E30009B68184604F08BFA0346012B0BD0022B4B
:101E400011D0002B17D1786945F24871C0F6010115
:101E500003F038FD0FE0786945F21071C0F601011A
:101E600003F030FD07E0786945F22C71C0F60101FE
:101E700003F028FD00BF89E0B8694FF4087106F04F
:101E80000AFE7861B8694FF4937106F004FE0346C8
:101E9000184605F013FE0346002B05D078694FF471
:101EA000FA7105F01BF971E078694FF0000105F057
:101EB00015F96BE0B8694FF4087106F0ECFD786134
:101EC000B86940F2271106F0E6FD0346184605F012
:101ED000F5FD0346002B05D078694FF4967105F0A7
:101EE0001BF953E078694FF0000105F015F94DE05A
:101EF000B8694FF4087106F0CEFD4FF00003FB61A6
:101F000040E0B8694FF4947106F0C5FD03461846E9
:101F100005F0D4FD0346002B18D040F28863C2F2CE
:101F20000003FA6953F8223018464FF0010104F01B
:101F30006BFC40F28863C2F20003FA6953F8223066
:101F400018464FF0010104F072FC17E040F288637C
:101F5000C2F20003FA6953F8223018464FF000012C
:101F600004F052FC40F28863C2F20003FA6953F8AD
:101F7000223018464FF0000104F059FCFB6903F1D0
:101F80000103FB61FB69022BBBD900BF00BF02E06C
:101F9000786807F029FF07F12407BD46F0BD00BFB0
:101FA00080B584B002AF00F071FC4FF000037B609D
:101FB0000CF096FC0CF0C4FB4FF0000006F0C4F9E6
:101FC0004FF0040006F0C8F94FF0000300934FF003
:101FD0000003019345F29440C0F601004FF0130155
:101FE00041F61D12C0F600024FF0000305F0D8FCC8
:101FF000386040F2A463C2F200031B68002B0AD1D0
:102000007B68002B05D138684FF4087106F043FD5A
:102010007860FFF709FB0BF031FCEAE780B485B08C
:1020200000AFF860B9607A604FF46053C4F2020305
:10203000FA684FEA8211BA684FEA026211437A687D
:102040004FEA02720A43C3F8882007F11407BD461D
:1020500080BC704780B483B000AF0346FB714FF083
:102060007003C4F24723FA791A6007F10C07BD46E2
:1020700080BC704780B489B000AF78604FF0000337
:10208000BB614FF000037B614FF00003FB614FF039
:1020900002033B614FF00003FB604FF00203BB60A3
:1020A0004FF46053C4F202039B6803F00C03BB615E
:1020B000BB69042B0AD0082B0FD0002B60D17A68A3
:1020C0004FF41053C0F2F403136060E07A684FF4E9
:1020D0009053C0F27A03136059E04FF46053C4F296
:1020E00002035B6803F480034FEA9353FB604FF4F1
:1020F0006053C4F202035B6803F03F03BB60FB68FC
:10210000002B14D04FF49053C0F27A03BA68B3FB9B
:10211000F2F24FF46053C4F20203596847F6C073F9
:102120000B404FEA931303FB02F3FB6113E04FF400
:102130001053C0F2F403BA68B3FBF2F24FF46053E9
:10214000C4F20203596847F6C0730B404FEA931379
:1021500003FB02F3FB614FF46053C4F202035B68BC
:1021600003F440334FEA134303F101034FEA4303FF
:102170003B61FA693B69B2FBF3F27B681A6006E0E7
:102180007A684FF41053C0F2F403136000BF4FF4A9
:102190006053C4F202039B6803F0F003BB61BB69A8
:1021A0004FEA1313BB6140F22C03C2F20003BA6979
:1021B0009B181B78DBB27B617B681A687B6922FA0B
:1021C00003F27B685A604FF46053C4F202039B68C9
:1021D00003F4E053BB61BB694FEA9323BB6140F258
:1021E0002C03C2F20003BA699B181B78DBB27B6137
:1021F0007B685A687B6922FA03F27B689A604FF425
:102200006053C4F202039B6803F46043BB61BB6983
:102210004FEA5333BB6140F22C03C2F20003BA69A8
:102220009B181B78DBB27B617B685A687B6922FA5A
:1022300003F27B68DA6007F12407BD4680BC704773
:1022400080B485B000AF78604FF00003FB604FF4BE
:102250006053C4F20203D3F88C30FB60FB6823F4B4
:102260004033FB60FA687B681343FB604FF46053B4
:10227000C4F20203FA68C3F88C2007F11407BD46C4
:1022800080BC704780B483B000AF78600B46FB70B1
:10229000FB78002B0CD04FF46053C4F202034FF4D0
:1022A0006052C4F20202116B7A680A431A630DE0AD
:1022B0004FF46053C4F202034FF46052C4F20202BE
:1022C000116B7A686FEA02020A401A6307F10C0781
:1022D000BD4680BC704700BF80B483B000AF78605B
:1022E0000B46FB70FB78002B0CD04FF46053C4F20C
:1022F00002034FF46052C4F20202916B7A680A43FF
:102300009A630DE04FF46053C4F202034FF460523D
:10231000C4F20202916B7A686FEA02020A409A6381
:1023200007F10C07BD4680BC704700BF80B483B086
:1023300000AF78600B46FB70FB78002B0CD04FF49D
:102340006053C4F202034FF46052C4F20202116CF3
:102350007A680A431A640DE04FF46053C4F2020332
:102360004FF46052C4F20202116C7A686FEA020202
:102370000A401A6407F10C07BD4680BC704700BFD5
:1023800080B483B000AF78600B46FB70FB78002B05
:102390000CD04FF46053C4F202034FF46052C4F205
:1023A0000202516C7A680A435A640DE04FF460539C
:1023B000C4F202034FF46052C4F20202516C7A6814
:1023C0006FEA02020A405A6407F10C07BD4680BC5E
:1023D000704700BF80B483B000AF78600B46FB70DD
:1023E000FB78002B0CD04FF46053C4F202034FF47F
:1023F0006052C4F20202116A7A680A431A620DE05E
:102400004FF46053C4F202034FF46052C4F202026C
:10241000116A7A686FEA02020A401A6207F10C0731
:10242000BD4680BC704700BF80B483B000AF786009
:102430000B46FB70FB78002B0CD04FF46053C4F2BA
:1024400002034FF46052C4F20202516A7A680A43EE
:102450005A620DE04FF46053C4F202034FF460522D
:10246000C4F20202516A7A686FEA02020A405A62B2
:1024700007F10C07BD4680BC704700BF80B487B031
:1024800000AF0346FB714FF00003FB604FF0000309
:102490007B614FF00003FB74FB794FEA5313DBB20F
:1024A000FB60FB68012B06D14FF46053C4F20203BA
:1024B0001B687B610FE0FB68022B06D14FF4605371
:1024C000C4F202031B6F7B6105E04FF46053C4F25A
:1024D00002035B6F7B61FB7903F01F03FB60FB680A
:1024E0007A6922FA03F303F00103002B03D04FF0C3
:1024F0000103FB7402E04FF00003FB74FB7C184601
:1025000007F11C07BD4680BC704700BF80B485B092
:1025100000AF786039604FF00003FB604FF00003BC
:10252000FB727B685B68FB60FB6823F0407323F4FD
:102530008073FB603B681B794FEA03223B681B6892
:102540001343FA681343FB607B68FA685A607B6840
:102550009B68FB60FA684FF2FD73CCF2FF031340F7
:10256000FB603B681A693B68DB681A433B689B6801
:102570001A433B685B794FEA43031343FA681343FA
:10258000FB607B68FA689A607B68DB6AFB60FB68CB
:1025900023F47003FB603B681B7D03F1FF33DAB269
:1025A000FB7A1343FB72FB7A4FEA0353FA68134337
:1025B000FB607B68FA68DA6207F11407BD4680BCED
:1025C000704700BF80B485B000AF78604FF0000363
:1025D000FB604FF40C53C4F201035B68FB60FA68C4
:1025E00043F2E003CFF6FC731340FB607B681A688C
:1025F0007B685B681A437B689B681A437B68DB686F
:102600001343FA681343FB604FF40C53C4F2010305
:10261000FA685A6007F11407BD4680BC704700BFD6
:1026200080B483B000AF78600B46FB70FB78002B62
:1026300006D07B689B6843F001027B689A6005E0E6
:102640007B689B6823F001027B689A6007F10C07A6
:10265000BD4680BC704700BF80B485B000AF7860D5
:10266000F970BA707B704FF00003FB604FF000030D
:10267000BB60FB78092B27D97B68DB68FB60FA78A5
:1026800013464FEA43039B18A3F11E034FF00702C2
:1026900002FA03F3BB60BB686FEA0303FA681340F6
:1026A000FB607978FA7813464FEA43039B18A3F14D
:1026B0001E0301FA03F3BB60FA68BB681343FB60B7
:1026C0007B68FA68DA6022E07B681B69FB60FA7855
:1026D00013464FEA43039B184FF0070202FA03F335
:1026E000BB60BB686FEA0303FA681340FB6079784C
:1026F000FA7813464FEA43039B1801FA03F3BB60D1
:10270000FA68BB681343FB607B68FA681A61BB78A0
:10271000062B27D87B685B6BFB60BB7803F1FF322D
:1027200013464FEA83039B184FF01F0202FA03F38C
:10273000BB60BB686FEA0303FA681340FB60F9787B
:10274000BB7803F1FF3213464FEA83039B1801FA6B
:1027500003F3BB60FA68BB681343FB607B68FA68ED
:102760005A6351E0BB780C2B27D87B681B6BFB604E
:10277000BA7813464FEA83039B18A3F123034FF063
:102780001F0202FA03F3BB60BB686FEA0303FA6837
:102790001340FB60F978BA7813464FEA83039B181D
:1027A000A3F1230301FA03F3BB60FA68BB68134388
:1027B000FB607B68FA681A6326E07B68DB6AFB6073
:1027C000BA7813464FEA83039B18A3F141034FF0F5
:1027D0001F0202FA03F3BB60BB686FEA0303FA68E7
:1027E0001340FB60F978BA7813464FEA83039B18CD
:1027F000A3F1410301FA03F3BB60FA68BB6813431A
:10280000FB607B68FA68DA6207F11407BD4680BC9A
:10281000704700BF80B483B000AF78607B689B686E
:1028200043F080427B689A6007F10C07BD4680BC8C
:10283000704700BF80B483B000AF78607B68DB6C0A
:102840009BB2184607F10C07BD4680BC704700BF1D
:1028500080B485B000AF78600B46FB704FF000038A
:10286000FB737B681A68FB781340002B03D04FF092
:102870000103FB7302E04FF00003FB73FB7B184680
:1028800007F11407BD4680BC704700BF80B500AF9C
:1028900000F046F800F096F880BD00BF80B584B027
:1028A00000AF0346FB714FF00003FB81F97940F262
:1028B0003C02C2F200020B464FEA83035B184FEA68
:1028C0008303D31803F110031B784FF40050C4F2B4
:1028D000010019464FF001024FF00003FFF7BCFE64
:1028E0004FF40050C4F20100FFF794FF00BF4FF413
:1028F0000050C4F201004FF00201FFF7A9FF0346A8
:10290000002BF4D04FF40050C4F20100FFF792FF07
:102910000346FB81FB89184607F11007BD4680BDC1
:1029200080B584B000AF4FF00003FB7342E0F97B49
:1029300040F23C02C2F200020B464FEA83035B18EE
:102940004FEA8303D31803F10C031B6818464FF0BA
:102950000101FFF797FCF97B40F23C02C2F2000252
:102960000B464FEA83035B184FEA8303D31803F146
:1029700008031B887B604FF003033B724FF000039A
:10298000FB72F97B40F23C02C2F200020B464FEAB6
:1029900083035B184FEA8303D31803F104031A6817
:1029A00007F104031046194600F014FDFB7B03F108
:1029B0000103FB73FB7B012BB9D907F11007BD465F
:1029C00080BD00BF80B58AB000AF4FF480704FF07B
:1029D0000101FFF7D5FC4FF00003BB614FF48033DA
:1029E000FB614FF000033B624FF000037B6207F195
:1029F00018031846FFF7E6FD4FF000033B604FF069
:102A000000033B714FF000037B714FF00003BB608C
:102A10004FF000033B614FF001033B753B464FF421
:102A20000050C4F201001946FFF770FD4FF400504A
:102A3000C4F201004FF00101FFF7F2FD07F1280792
:102A4000BD4680BD80B400AFBD4680BC704700BFAE
:102A500080B400AFFEE700BF80B400AFFEE700BF68
:102A600080B400AFFEE700BF80B400AFFEE700BF58
:102A700080B400AFBD4680BC704700BF80B400AFDB
:102A8000BD4680BC704700BF80B400AFBD4680BC6F
:102A9000704700BF80B500AF49F6C413C2F201030E
:102AA0001B6803F1010249F6C413C2F201031A6064
:102AB00040F2B863C2F200031B6803F1010240F266
:102AC000B863C2F200031A6040F2B863C2F20003B6
:102AD0001B681E2B08D940F2B863C2F200034FF006
:102AE00000021A60FEF718FD80BD00BF80B500AF80
:102AF00002F018FA80BD00BF80B500AF02F006FA00
:102B000080BD00BF80B582B000AF4FF00003FB7105
:102B100000F044F84FF0000000F09AFE00F01CF9BD
:102B200049F6AC13C2F201034FF000021A70FDF730
:102B30003DFB00F079F84FF00103FB7140F2BC63FC
:102B4000C2F200034FF000021A8040F2BE63C2F2EC
:102B500000034FF000021A8040F2C063C2F200038B
:102B60004FF000021A6049F6BC13C2F201034FF0A5
:102B700050421A6049F6A813C2F201034FF0000256
:102B80001A6049F6B013C2F201034FF000021A6056
:102B9000FB79184607F10807BD4680BD80B582B0B5
:102BA00000AF4FF008004FF00101FFF76BFB4FF44F
:102BB00000533B604FF002037B714FF001033B7108
:102BC0004FF00003BB714FF00003FB713B464FF425
:102BD0004060C4F20200194600F0FCFB4FF0040014
:102BE0004FF00101FFF74EFB4FF004033B604FF045
:102BF00002037B714FF001033B714FF00003BB7187
:102C00004FF00003FB713B464FF40060C4F202003A
:102C1000194600F0DFFB4FF0010000F065F807F106
:102C20000807BD4680BD00BF80B590B000AF4FF033
:102C300080604FF00101FFF7A3FB4FF400004FF05D
:102C40000101FFF71FFB00F077FA4FF000037B60F4
:102C50004FF00003BB604FF00003FB604FF0000338
:102C60003B614FF000037B634FF00003BB634FF009
:102C70000003FB634FF0C0004FF007014FF0040268
:102C8000FFF7CCF94FF40030FFF7DAFA4FF001000C
:102C9000FFF7E0F900BF4FF03D00FFF7EFFB034601
:102CA000002BF8D04FF009037B614FF00103BB61AB
:102CB0004FF01D03FB614FF003033B6240F20D1325
:102CC0007B6240F24313BB6240F21713FB6240F297
:102CD00047133B6307F104031846FEF729F907F190
:102CE0004007BD4680BD00BF80B483B000AF03463F
:102CF000FB71FB79002B07D14FF40063C4F2020390
:102D00004FF004025A8306E04FF40063C4F202035A
:102D10004FF004021A8307F10C07BD4680BC7047D0
:102D200080B483B000AF0346FB71FB79002B07D161
:102D30004FF44063C4F202034FF400525A8306E09A
:102D40004FF44063C4F202034FF400521A8307F1B8
:102D50000C07BD4680BC704780B500AF4FF0CA007D
:102D600000F0AEF94FF0C30000F0C8F94FF00800D2
:102D700000F0C4F94FF0500000F0C0F94FF0CF0060
:102D800000F09EF94FF0000000F0B8F94FF0C100DC
:102D900000F0B4F94FF0300000F0B0F94FF0ED0062
:102DA00000F08EF94FF0640000F0A8F94FF0030036
:102DB00000F0A4F94FF0120000F0A0F94FF08100EC
:102DC00000F09CF94FF0E80000F07AF94FF0850030
:102DD00000F094F94FF0000000F090F94FF0780007
:102DE00000F08CF94FF0CB0000F06AF94FF0390099
:102DF00000F084F94FF02C0000F080F94FF0000053
:102E000000F07CF94FF0340000F078F94FF0020048
:102E100000F074F94FF0F70000F052F94FF0200085
:102E200000F06CF94FF0EA0000F04AF94FF00000B2
:102E300000F064F94FF0000000F060F94FF0B100CD
:102E400000F03EF94FF0000000F058F94FF01B0081
:102E500000F054F94FF0B60000F032F94FF00A00DC
:102E600000F04CF94FF0A20000F048F94FF0C0001C
:102E700000F026F94FF0100000F040F94FF0C100CB
:102E800000F01EF94FF0100000F038F94FF0C500C7
:102E900000F016F94FF0450000F030F94FF0150042
:102EA00000F02CF94FF0C70000F00AF94FF0900045
:102EB00000F024F94FF0360000F002F94FF0C8009E
:102EC00000F01CF94FF0F20000F0FAF84FF00000AB
:102ED00000F014F94FF0B00000F0F2F84FF0C2002B
:102EE00000F00CF94FF0B60000F0EAF84FF00A00DD
:102EF00000F004F94FF0A70000F000F94FF02700B0
:102F000000F0FCF84FF0040000F0F8F84FF02A0051
:102F100000F0D6F84FF0000000F0F0F84FF000009D
:102F200000F0ECF84FF0000000F0E8F84FF0EF0090
:102F300000F0E4F84FF02B0000F0C2F84FF0000072
:102F400000F0DCF84FF0000000F0D8F84FF001007E
:102F500000F0D4F84FF03F0000F0D0F84FF0F6004A
:102F600000F0AEF84FF0010000F0C8F84FF000009C
:102F700000F0C4F84FF0060000F0C0F84FF02C004D
:102F800000F09EF84FF0C80000F00EFA4FF0260057
:102F900000F096F84FF0010000F0B0F84FF0E000BC
:102FA00000F08EF84FF00F0000F0A8F84FF0290065
:102FB00000F0A4F84FF0240000F0A0F84FF00C004F
:102FC00000F09CF84FF00E0000F098F84FF0090068
:102FD00000F094F84FF04E0000F090F84FF07800B9
:102FE00000F08CF84FF03C0000F088F84FF009003A
:102FF00000F084F84FF0130000F080F84FF0050067
:1030000000F07CF84FF0170000F078F84FF0110056
:1030100000F074F84FF0000000F070F84FF0E1009D
:1030200000F04EF84FF0000000F068F84FF0160086
:1030300000F064F84FF01B0000F060F84FF004005F
:1030400000F05CF84FF0110000F058F84FF0070066
:1030500000F054F84FF0310000F050F84FF033001A
:1030600000F04CF84FF0420000F048F84FF0050037
:1030700000F044F84FF00C0000F040F84FF00A0068
:1030800000F03CF84FF0280000F038F84FF02F0027
:1030900000F034F84FF00F0000F030F84FF011005E
:1030A00000F00EF84FF0C80000F07EF94FF0290054
:1030B00000F006F84FF02C0000F002F880BD00BFD1
:1030C00080B582B000AF0346FB714FF00000FFF700
:1030D00027FE4FF00000FFF707FEFB79184600F0CF
:1030E000EFFC4FF00A0000F05FF94FF00100FFF72E
:1030F000FBFD07F10807BD4680BD00BF80B582B06B
:1031000000AF0346FB714FF00100FFF709FE4FF0DF
:103110000000FFF7E9FDFB79184600F0D1FC4FF005
:103120000A0000F041F94FF00100FFF7DDFD07F163
:103130000807BD4680BD00BF80B582B000AF4FF02C
:103140006F004FF00101FFF79DF84FF00000C4F24F
:1031500002004FF003014FF00E0200F0DDF94FF0D6
:103160000000C4F202004FF004014FF00E0200F024
:10317000D3F94FF00000C4F202004FF006014FF007
:103180000E0200F0C9F94FF00000C4F202004FF047
:103190000B014FF00E0200F0BFF94FF00000C4F237
:1031A00002004FF00C014FF00E0200F0B5F941F6AD
:1031B00058033B604FF002037B714FF002033B71F9
:1031C0004FF00003BB714FF00003FB713B464FF023
:1031D0000000C4F20200194600F0FCF84FF48060D1
:1031E000C4F202004FF000014FF0090200F094F920
:1031F0004FF48060C4F202004FF001014FF0090269
:1032000000F08AF94FF48060C4F202004FF0080128
:103210004FF00E0200F080F94FF48060C4F202001B
:103220004FF009014FF00E0200F076F94FF4806084
:10323000C4F202004FF00A014FF00E0200F06CF9E8
:103240004FF48060C4F202004FF00B014FF00E0209
:1032500000F062F940F603733B603B464FF4806038
:10326000C4F20200194600F0B5F84FF40060C4F251
:1032700002004FF006014FF00E0200F04DF94FF43E
:103280000060C4F202004FF007014FF00E0200F0A0
:1032900043F94FF40060C4F202004FF00A014FF00E
:1032A0000E0200F039F94FF498633B603B464FF44F
:1032B0000060C4F20200194600F08CF84FF4406040
:1032C000C4F202004FF003014FF00E0200F024F9A7
:1032D0004FF44060C4F202004FF006014FF00E02BE
:1032E00000F01AF94FF048033B603B464FF4406052
:1032F000C4F20200194600F06DF84FF4A050C4F279
:1033000002004FF00A014FF00E0200F005F94FF4F1
:1033100080633B603B464FF4A050C4F20200194664
:1033200000F058F84FF4C050C4F202004FF006010C
:103330004FF00E0200F0F0F84FF4C050C4F202005B
:103340004FF007014FF00E0200F0E6F84FF4C050C6
:10335000C4F202004FF00A014FF0090200F0DCF85D
:103360004FF4C050C4F202004FF00B014FF00E02B8
:1033700000F0D2F84FF4C050C4F202004FF00C013C
:103380004FF0090200F0C8F84FF4E6533B603B46AB
:103390004FF4C050C4F20200194600F01BF807F1C8
:1033A0000807BD4680BD00BF80B485B000AF78601F
:1033B0004FF00003FB607B68FB6003E0FB6803F1F8
:1033C000FF33FB60FB68002BF8D107F11407BD4603
:1033D00080BC704780B487B000AF786039604FF030
:1033E00000037B614FF000033B614FF00003FB6083
:1033F0004FF000037B6186E07B694FF0010202FA27
:1034000003F33B613B681A683B691340FB60FA6851
:103410003B699A4273D17B681A687B694FEA430320
:103420004FF0030101FA03F36FEA03031A407B68CC
:103430001A607B681A683B681B7919467B694FEAFA
:10344000430301FA03F31A437B681A603B681B7954
:10345000012B03D03B681B79022B34D17B689A681F
:103460007B694FEA43034FF0030101FA03F36FEA6C
:1034700003031A407B689A607B689A683B685B79B3
:1034800019467B694FEA430301FA03F31A437B6849
:103490009A607B685A687B699BB24FF0010101FA20
:1034A00003F36FEA03031A407B685A607B685A682B
:1034B0003B689B7919467B699BB201FA03F39BB287
:1034C0001A437B685A607B68DA687B699BB24FEA73
:1034D00043034FF0030101FA03F36FEA03031A40B9
:1034E0007B68DA607B68DA683B68DB7919467B6960
:1034F0004FEA430301FA03F31A437B68DA607B69FE
:1035000003F101037B617B690F2B7FF675AF07F138
:103510001C07BD4680BC704780B485B000AF7860A2
:1035200013460A467A807B704FF00003FB604FF031
:103530000003BB607A787B8803F007034FEA8303BC
:1035400002FA03F3FB607B884FEAD3039BB21A466F
:103550007B884FEAD3039BB219467B6801F10801CF
:1035600053F821107B8803F007034FEA83034FF0E1
:103570000F0000FA03F36FEA030319407B6802F1BE
:10358000080243F822107B884FEAD3039BB21A4605
:103590007B6802F1080253F82220FB681343BB60EA
:1035A0007B884FEAD3039BB21A467B6802F108027C
:1035B000B96843F8221007F11407BD4680BC704774
:1035C00080B500AF4FF46D43CEF200034FF46D426F
:1035D000CEF20002D2F8882042F47002C3F88820AC
:1035E0004FF46053C4F202034FF46052C4F202027B
:1035F000126842F001021A604FF46053C4F20203F1
:103600004FF000029A604FF46053C4F202034FF48B
:103610006052C4F20202126822F0847222F48032F4
:103620001A604FF46053C4F2020343F21002C2F274
:1036300000425A604FF46053C4F202034FF46052E8
:10364000C4F20202126822F480221A604FF460531E
:10365000C4F202034FF00002DA6000F009F84FF400
:103660006D43CEF200034FF000629A6080BD00BF50
:1036700080B483B000AF4FF000037B604FF00003D5
:103680003B604FF46053C4F202034FF46052C4F243
:103690000202126842F480321A604FF46053C4F29E
:1036A00002031B6803F400333B607B6803F10103F2
:1036B0007B603B68002B03D17B68B3F5A04FECD156
:1036C0004FF46053C4F202031B6803F40033002B71
:1036D00003D04FF001033B6002E04FF000033B607A
:1036E0003B68012B40F0AE804FF46053C4F20203FC
:1036F0004FF46052C4F20202126C42F080521A641B
:103700004FF4E043C4F200034FF4E042C4F200027D
:10371000126842F440421A604FF46053C4F202034C
:103720004FF46052C4F2020292689A604FF4605300
:10373000C4F202034FF46052C4F20202926842F4EF
:1037400000429A604FF46053C4F202034FF4605297
:10375000C4F20202926842F4A0529A604FF460539D
:10376000C4F2020345F60822C0F240725A604FF4D8
:103770006053C4F202034FF46052C4F202021268B2
:1037800042F080721A6000BF4FF46053C4F202032B
:103790001B6803F00073002BF6D04FF4E043C4F233
:1037A00000034FF4E042C4F20002126842F4803297
:1037B0001A6000BF4FF4E043C4F200035B6803F4F7
:1037C0008033002BF6D04FF4E043C4F200034FF4F3
:1037D000E042C4F20002126842F400321A6000BFF4
:1037E0004FF4E043C4F200035B6803F40033002BA2
:1037F000F6D04FF47053C4F2020340F205721A601F
:103800004FF46053C4F202034FF46052C4F2020258
:10381000926822F003029A604FF46053C4F20203EC
:103820004FF46052C4F20202926842F002029A60BF
:1038300000BF4FF46053C4F202039B6803F00C0313
:10384000082BF6D107F10C07BD4680BC704700BFBE
:1038500080B58AB000AF0346FB714FF0000387F8D4
:10386000273040F2C463C2F200031B78002B0ED055
:1038700040F2C563C2F200031B78FA799A4203D181
:103880004FF0010387F8273097F8273013E14FF402
:1038900080104FF00101FEF773FD40F26403C2F2A5
:1038A00000039B6818464FF00101FEF7EBFC40F265
:1038B0006403C2F200039B6918464FF00101FEF752
:1038C000E1FC40F26403C2F200039B6A18464FF029
:1038D0000101FEF7D7FC40F26403C2F200031A684C
:1038E00040F26403C2F200031B7B104619464FF0FE
:1038F0000502FFF711FE40F26403C2F200031A69E9
:1039000040F26403C2F200031B7F104619464FF0D9
:103910000502FFF701FE40F26403C2F200031A6AD7
:1039200040F26403C2F2000393F82C3010461946AB
:103930004FF00502FFF7F0FD4FF0020387F820304B
:103940004FF0020387F821304FF0000387F8223050
:103950004FF0000387F8233040F26403C2F2000303
:103960009B88FB6140F26403C2F200031A6807F10E
:103970001C0310461946FFF72DFD40F26403C2F206
:1039800000039B8AFB6140F26403C2F200031A69E0
:1039900007F11C0310461946FFF71CFD40F26403B3
:1039A000C2F200039B8CFB6140F26403C2F200038D
:1039B0001A6A07F11C0310461946FFF70BFD4FF476
:1039C000A040C4F2010000F011FA4FF000033B8167
:1039D0004FF482737B814FF00003BB81FB79002B96
:1039E00002D0FB79042B06D14FF00003FB814FF08E
:1039F00000033B821FE0FB79012B02D0FB79052BF2
:103A000006D14FF00003FB814FF001033B8212E02F
:103A1000FB79022B02D0FB79062B06D14FF0020373
:103A2000FB814FF000033B8205E04FF00203FB8176
:103A30004FF001033B824FF400737B824FF0180379
:103A4000BB82FB79002B08D0FB79012B05D0FB79D9
:103A5000022B02D0FB79032B03D14FF00003FB8232
:103A600002E04FF08003FB824FF007033B8307F136
:103A700008034FF4A040C4F20100194600F036FAE2
:103A80004FF4A040C4F201004FF0010100F072FABF
:103A900040F2C463C2F200034FF001021A7040F218
:103AA000C563C2F20003FA791A704FF0010387F878
:103AB000273097F82730184607F12807BD4680BD04
:103AC00080B584B000AF0346FB714FF00003FB7379
:103AD00000BF4FF4A040C4F201004FF0020100F01B
:103AE00085FA0346002BF4D0FB799BB24FF4A0403B
:103AF000C4F20100194600F06BFA00BF4FF4A04079
:103B0000C4F201004FF0010100F070FA0346002BEF
:103B1000F4D04FF4A040C4F2010000F04BFA034689
:103B2000FB73FB7B184607F11007BD4680BD00BF45
:103B300080B487B000AF78604FF000037B614FF036
:103B400000033B614FF00003FB604FF00003BB60DC
:103B50007B685A687B689B681A437B68DB681A43FA
:103B60007B681B691A437B685B691A437B689B69A6
:103B70001A437B68DB691A437B681B6A1A437B68BC
:103B80005B6A13437B617B681B68002B09D14FF490
:103B9000A073CAF200037A681268796943F82210A8
:103BA00017E07B68DA697B681B6A1A437B685B6A8B
:103BB0001343FB604FF4A073CAF20003FA681A6063
:103BC0004FF4A073CAF200037A681268796943F867
:103BD00022107B681B68002B41D17B689B6A1B68A5
:103BE00003F1FF327B689B6A5B6803F1FF334FEAA6
:103BF00003131A437B689B6A9B6803F1FF334FEA08
:103C000003231A437B689B6ADB6803F1FF334FEAA7
:103C100003331A437B689B6A1B6903F1FF334FEA46
:103C200003431A437B689B6A5B6903F1FF334FEAE6
:103C300003531A437B689B6A9B6903F1FF334FEA86
:103C4000036313433B614FF4A073CAF200037A6825
:103C5000126802F10202396943F822103EE07B68E3
:103C60009B6A1B6803F1FF327B689B6A5B6803F108
:103C7000FF334FEA03131A437B689B6A9B6803F187
:103C8000FF334FEA03231A437B689B6A1B6903F1E6
:103C9000FF334FEA034313433B617B689B6ADB6856
:103CA00003F1FF334FEA03327B689B6A5B6903F1E0
:103CB000FF334FEA03531343BB604FF4A073CAF2C0
:103CC0000003BA689A604FF4A073CAF200037A68DE
:103CD000126802F10202396943F8221007F11C0749
:103CE000BD4680BC704700BF80B485B000AF78602F
:103CF0004FF00003FB607B681A687B685B681A43BF
:103D00007B689B6803F1FF334FEA43131A437B68D8
:103D1000DB684FEA43231343FB604FF4A073CAF2FE
:103D20000003FA681A6107F11407BD4680BC7047AA
:103D300080B483B000AF78604FF4A073CAF2000380
:103D40004FF4A072CAF2000251697A684FEA420247
:103D50000A435A6107F10C07BD4680BC704700BF9B
:103D600080B485B000AF786039604FF00003FB731A
:103D70004FF00003BB607B68102B06D14FF060034F
:103D8000CAF200035B68BB601BE07B68B3F5807F11
:103D900006D14FF08003CAF200035B68BB6010E0FD
:103DA0007B68B3F5805F06D14FF0A003CAF2000331
:103DB0005B68BB6005E04FF4A073CAF200039B6927
:103DC000BB60BA683B681A403B689A4203D04FF028
:103DD0000003FB7302E04FF00103FB73FB7B18460B
:103DE00007F11407BD4680BC704700BF80B582B0A4
:103DF00000AF78607A684FF44053C4F201039A42EE
:103E00000CD14FF480504FF00101FEF70DFB4FF441
:103E100080504FF00001FEF707FB62E07A684FF434
:103E20006053C4F200039A420CD14FF480404FF02B
:103E30000101FEF7CFFA4FF480404FF00001FEF78A
:103E4000C9FA4EE07A684FF47053C4F200039A4204
:103E50000CD14FF400404FF00101FEF7BBFA4FF4D4
:103E600000404FF00001FEF7B5FA3AE07A684FF4EF
:103E70005053C4F201039A420CD14FF400504FF05A
:103E80000101FEF7D1FA4FF400504FF00001FEF7A8
:103E9000CBFA26E07A684FF4A043C4F201039A42B9
:103EA0000CD14FF480104FF00101FEF7BDFA4FF432
:103EB00080104FF00001FEF7B7FA12E07A684FF475
:103EC000A843C4F201039A420BD14FF400104FF003
:103ED0000101FEF7A9FA4FF400104FF00001FEF7C0
:103EE000A3FA07F10807BD4680BD00BF80B485B0C6
:103EF00000AF786039604FF00003FB817B681B885E
:103F0000FB81FB8903F44153FB813B681A883B68C2
:103F10005B8813439AB23B689B8813439AB23B6811
:103F2000DB8813439AB23B681B8913439AB23B6800
:103F30005B8913439AB23B689B8913439AB23B68EF
:103F4000DB8913439AB2FB891343FB817B68FA89AF
:103F50001A807B689B8B9BB223F400639AB27B68C8
:103F60009A833B681A8A7B681A8207F11407BD4658
:103F700080BC704780B483B000AF78600B46FB70A4
:103F8000FB78002B08D07B681B889BB243F0400372
:103F90009AB27B681A8007E07B681B889BB223F08B
:103FA00040039AB27B681A8007F10C07BD4680BCBB
:103FB000704700BF80B483B000AF78607B689B8996
:103FC0009BB2184607F10C07BD4680BC704700BF86
:103FD00080B483B000AF78600B467B807B687A88C2
:103FE0009A8107F10C07BD4680BC704780B485B04C
:103FF00000AF78600B467B804FF00003FB737B685B
:104000001B899AB27B8813409BB2002B03D04FF0E0
:104010000103FB7302E04FF00003FB73FB7B1846C8
:1040200007F11407BD4680BC704700BF80B582B061
:1040300000AF78607A684FF4A843C4F200039A4254
:104040000CD14FF400104FF00101FEF7C3F94FF40B
:1040500000104FF00001FEF7BDF926E07A684FF43A
:10406000B043C4F200039A420CD14FF480004FF0E9
:104070000101FEF7AFF94FF480004FF00001FEF7A9
:10408000A9F912E07A684FF4B843C4F200039A42E7
:104090000BD14FF400004FF00101FEF79BF94FF4F4
:1040A00000004FF00001FEF795F907F10807BD4643
:1040B00080BD00BF80B58AB000AF786039604FF036
:1040C0000003FB844FF000037B844FF00403BB84A8
:1040D0004FF49053C0F27A03FB617B689B88FB84AA
:1040E000FB8C23F03F03FB8407F10C031846FDF71C
:1040F000C1FF7B69FB61FA694DF68363C4F21B3330
:10410000A3FB02134FEA93437B84FA8C7B8C13430B
:10411000FB847B68FA8C9A807B681B889BB223F0B7
:1041200001039AB27B681A804FF00003FB843B685E
:104130001A6848F2A063C0F201039A4218D83B689B
:104140001B684FEA4303FA69B2FBF3F3BB84BB8CF1
:10415000032B02D84FF00403BB84FA8CBB8C1343AF
:10416000FB847B8C03F101039AB27B681A844BE0D9
:104170003B68DA884BF6FF739A420AD13B681A68AB
:1041800013464FEA43039B18FA69B2FBF3F3BB846F
:1041900010E03B681A6813464FEA83039B184FEA06
:1041A00083029B18FA69B2FBF3F3BB84BB8C43F424
:1041B0008043BB84BB8C4FEA03534FEA1353002B5D
:1041C00003D1BB8C43F00103BB84BA8CFB8C13433B
:1041D0009BB26FEA43436FEA5343FB847B8C4FF4FB
:1041E000967202FB03F244F6D353C1F2620383FBDF
:1041F00002134FEAA3114FEAE273CB1A9BB203F109
:1042000001039AB27B681A847B68FA8C9A837B6874
:104210001B889BB243F001039AB27B681A807B68CB
:104220001B88FB84FB8C23F4816323F00203FB8453
:104230003B689A883B685B8913439AB2FB8C1343B3
:10424000FB847B68FA8C1A803B689A893B681B89DF
:1042500013439AB27B681A8107F12807BD4680BDD7
:1042600080B483B000AF78600B46FB70FB78002B06
:1042700008D07B681B889BB243F001039AB27B682D
:104280001A8007E07B681B889BB223F001039AB277
:104290007B681A8007F10C07BD4680BC704700BFE1
:1042A00080B483B000AF78600B46FB70FB78002BC6
:1042B00008D07B681B889BB243F480739AB27B68FA
:1042C0001A8007E07B681B889BB223F480739AB244
:1042D0007B681A8007F10C07BD4680BC704700BFA1
:1042E00080B483B000AF78600B46FB70FB78002B86
:1042F00008D07B681B889BB243F400739AB27B683A
:104300001A8007E07B681B889BB223F400739AB283
:104310007B681A8007F10C07BD4680BC704700BF60
:1043200080B483B000AF786013460A46FA70BB7061
:10433000BB78002B04D0FB7843F00103FB7003E053
:10434000FB7823F00103FB70FB789AB27B681A823A
:1043500007F10C07BD4680BC704700BF80B483B036
:1043600000AF78600B46FB70FB78002B08D07B68B1
:104370001B889BB243F480639AB27B681A8007E083
:104380007B681B889BB223F480639AB27B681A8097
:1043900007F10C07BD4680BC704700BF80B483B0F6
:1043A00000AF78600B46FB70FB78002B0AD07B686F
:1043B0001B889BB26FEA43436FEA53439AB27B6810
:1043C0001A8009E07B681B889BB24FEA43434FEA9F
:1043D00053439AB27B681A8007F10C07BD4680BC34
:1043E000704700BF80B483B000AF78600B46FB70AD
:1043F000FB789AB27B681A8207F10C07BD4680BC35
:10440000704700BF80B483B000AF78607B681B8AC0
:104410009BB2DBB2184607F10C07BD4680BC704763
:1044200080B487B000AF786039604FF00003FB754F
:104430004FF000033B614FF00003FB607B68FB60C3
:104440003B684FEA13733B613B6823F07F433B605B
:104450003B69002B04D0FB6803F11403FB6007E009
:104460003B684FEA13433B60FB6803F11803FB60B2
:10447000FB681A683B681340002B03D04FF0010320
:10448000FB7502E04FF00003FB75FB7D184607F15A
:104490001C07BD4680BC704780B483B000AF0346A4
:1044A000FB714FF46143CEF2000397F907204FEA06
:1044B0005212F97901F01F014FF0010000FA01F1E9
:1044C00043F8221007F10C07BD4680BC704700BFBF
:1044D00080B483B000AF03463960FB7197F90730B1
:1044E000002B10DA4FF46D43CEF20003FA7902F09C
:1044F0000F02A2F104013A68D2B24FEA0212D2B21C
:104500005B181A760DE04FF46143CEF2000397F981
:1045100007103A68D2B24FEA0212D2B25B1883F89F
:10452000002307F10C07BD4680BC704780B485B0FE
:1045300000AF78607B68002B02D04FF0000358E09A
:1045400040F29C03C2F200037A6853F82230FB6009
:10455000FA6847F2A073C0F601039A4202D14FF005
:10456000000346E0FA6847F27073C0F601039A420E
:1045700002D14FF001033CE0FA6847F2B873C0F68D
:1045800001039A4202D14FF0020332E0FA6847F287
:10459000E873C0F601039A4202D14FF0030328E00A
:1045A000FA6847F2D073C0F601039A4202D14FF085
:1045B00004031EE0FA6847F61803C0F601039A42A6
:1045C00002D14FF0050314E0FA6847F63003C0F655
:1045D00001039A4202D14FF006030AE0FA6847F657
:1045E0000003C0F601039A4202D14FF0070300E036
:1045F000FEE7184607F11407BD4680BC704700BFB0
:1046000080B584B000AF78603960786807F062FDEB
:10461000F860FB683A6802FB03F303F10703002B21
:1046200001DA03F107034FEAE303BB60BB681846F6
:1046300007F11007BD4680BD80B483B000AF78603D
:1046400039603B68002B06D07B681B6843F0020290
:104650007B681A6005E07B681B6823F002027B68B8
:104660001A604FF4D043C4F201034FF002025A62C1
:1046700007F10C07BD4680BC704700BF80B483B013
:1046800000AF786039603B68002B06D07B681B6800
:1046900043F010027B681A6005E07B681B6823F01A
:1046A00010027B681A604FF4D043C4F201034FF04C
:1046B00002025A6207F10C07BD4680BC704700BF7A
:1046C00080B58AB000AFF860B9607A60F86807F02A
:1046D000F5FC7862F86807F0F4FC3862BB6803F117
:1046E0001E03FB61BB6803F11D027B6AD318BB612B
:1046F0007B6803F104037B617B6803F103023B6A7F
:10470000D3183B6140F29403C2F20003FA6853F8F5
:10471000222040F29403C2F20003F96853F82130DA
:104720005B6803F47043536040F29403C2F20003E9
:10473000FA6853F82230BA694FEA0241FA690A432B
:104740005A6040F29403C2F20003FA6853F8222040
:1047500040F29403C2F20003F96853F821309B68D9
:1047600003F47043936040F29403C2F20003FA68CA
:1047700053F822303A694FEA02417A690A439A6053
:104780004FF00200FCF7EEFC07F12807BD4680BDA4
:1047900080B582B000AF7860396040F29403C2F215
:1047A00000037A6853F8222040F29403C2F2000317
:1047B000796853F821305B6923F0FF03536140F2BD
:1047C0009403C2F200037A6853F822303A68C2F1C7
:1047D000FF025A614FF00100FCF7C4FC07F1080723
:1047E000BD4680BD80B588B000AFF860B9607A6022
:1047F000BB68DBB24FEA0343FB61BB6803F47F4352
:10480000BB61BB684FEA1343DBB27B617B684FEA55
:1048100003633B6140F29403C2F20003FA6853F869
:1048200022301B6C40F29403C2F20003FA6853F882
:1048300022304FF000021A6440F29403C2F20003E7
:10484000FA6853F82230F969BA6911437A69114359
:104850003A690A431A644FF00100FCF783FC07F140
:104860002007BD4680BD00BF80B586B000AFF860B0
:10487000B9607A603B60F868FFF758FE78614FF4E2
:104880003043C4F202034FF400721A604FF4304315
:10489000C4F20203BA68DA604FF43043C4F2020390
:1048A0007A68DA634FF43043C4F202037A6A1A6119
:1048B0004FF43043C4F202037A6A1A644FF430436F
:1048C000C4F202037A69DA614FF43043C4F202039E
:1048D0003A684FEA024211463A6A92B20A435A646F
:1048E0004FF43043C4F202034FF43042C4F20202E8
:1048F000126842F001021A6000BF4FF43043C4F264
:1049000002031B6803F00103002BF6D107F118071F
:10491000BD4680BD80B586B000AFF860B9607A60F2
:104920003B60F868FFF702FE78614FF43043C4F251
:1049300002034FF40072C0F203021A604FF43043D6
:10494000C4F202037A6A9A634FF43043C4F202035A
:10495000BA68DA634FF43043C4F202033A6A1A6465
:104960004FF43043C4F202037A695A634FF4304380
:10497000C4F202037A684FEA024211463A6892B2E0
:104980000A435A644FF43043C4F202034FF43042F6
:10499000C4F20202126842F001021A6000BF4FF432
:1049A0003043C4F202031B6803F00103002BF6D16D
:1049B00007F11807BD4680BD80B500AF4FF001007C
:1049C000FCF7AAFB80BD00BF80B592B000AF786055
:1049D00007F108024FF0400310464FF000011A465D
:1049E00010F0E2FB7B68012B00F23B8140F2DC63BC
:1049F000C2F200031B68002B2DD140F2DC63C2F22F
:104A000000034FF001021A604FF001004FF0010166
:104A1000FCF77CFC4FF058004FF00001FFF758FD09
:104A20004FF05800FFF738FD4FF400704FF00101D0
:104A3000FBF71AFF4FF05A004FF00001FFF748FD57
:104A40004FF05A00FFF728FD4FF43043C4F2020341
:104A50004FF002029A60786807F030FB024640F29D
:104A6000E063C2F200031A60786807F02AFB02468E
:104A700040F2E463C2F200031A604FF01E03BB6011
:104A800040F2E063C2F200031B6803F11D03FB6008
:104A90004FF004033B6140F2E463C2F200031B6881
:104AA00003F103037B617868FFF740FD024640F2A3
:104AB000E863C2F200031A6040F2E863C2F2000346
:104AC0001B68BB614FF0FF03FB614FF000033B62CB
:104AD0004FF000037B624FF00003BB624FF0000316
:104AE000FB6240F2E063C2F200031B68786819467B
:104AF000FFF786FD024640F2EC63C2F200031A6043
:104B00004FF480633B634FF005037B6340F2EC633B
:104B1000C2F200031B6803F10303FB6340F2EC6382
:104B2000C2F200031B683B6440F2E463C2F200037C
:104B30001B687B6445F20873C0F601037A6853F87A
:104B40002230BB6340F29403C2F200037A6853F848
:104B5000222007F1080310461946FCF713FB78687A
:104B600007F0B8FA024640F2F063C2F200031A609E
:104B700040F2F063C2F200031B68082B0CDC40F229
:104B80009403C2F200037A6853F8223018464FF0BB
:104B90000101FFF773FD54E040F29C03C2F20003F1
:104BA0007A6853F8222047F60003C0F601039A42C0
:104BB00047D140F29403C2F200037A6853F82230DE
:104BC00018464FF00101FFF759FD40F2F463C2F2BD
:104BD00000034FF000021A602CE047F61803C0F6FD
:104BE00001035A6840F2F463C2F200031B681846DE
:104BF0009047024640F2F863C2F200031A6040F2A6
:104C0000F863C2F200031A6840F2F463C2F20003D0
:104C10001B68786811461A46FFF7E4FD40F2F4631A
:104C2000C2F200031B6803F1010240F2F463C2F216
:104C300000031A6040F2F463C2F200031B68FF2B0A
:104C4000CBDD40F29403C2F200037A6853F82230BD
:104C500018464FF00101FCF73DFB4FF00100FCF757
:104C600081FA07F14807BD4680BD00BF80B485B01A
:104C700000AF786040F2D063C2F200037A6853F864
:104C8000222040F2D463C2F20003796853F8213045
:104C900003FB02F240F2D863C2F20003796853F8D2
:104CA000213003FB02F3FB60FB68184607F1140791
:104CB000BD4680BC704700BF90B58BB002AFF860B6
:104CC000B9607A60F868FFF7D1FFF86145F20873C0
:104CD000C0F60103FA6853F82220BB68F96901FBAA
:104CE00003F3D318BB6145F20873C0F60103FA68F9
:104CF00053F822207B68F96901FB03F3D3187B6129
:104D0000B9697A6940F2D063C2F20003F86853F8D7
:104D1000204040F2D463C2F20003F86853F8203018
:104D200000934FF000030193F8682346FFF79CFDC2
:104D300007F12407BD4690BD80B58AB002AFF86088
:104D4000B9607A603B60F868FFF790FFF86145F260
:104D50000873C0F60103FA6853F8222040F2D063CA
:104D6000C2F20003F96853F82130796801FB03F1BE
:104D7000BB68C91840F2D863C2F20003F86853F860
:104D8000203003FB01F3194640F2CC63C2F200036A
:104D9000F86853F82030F86900FB03F3CB18D318F8
:104DA000BB6145F20873C0F60103FA6853F822208C
:104DB00040F2D063C2F20003F96853F82130B96AB7
:104DC00001FB03F13B68C91840F2D863C2F200034B
:104DD000F86853F8203003FB01F3194640F2CC6326
:104DE000C2F20003F86853F82030F86900FB03F3BF
:104DF000CB18D3187B61B9697A6940F2D063C2F2EB
:104E00000003F86853F82000FB6AC31A386B00905F
:104E10000193F868FB6AFFF727FD07F12007BD46FD
:104E200080BD00BF80B58AB002AFF860B9607A601B
:104E30003B6008F009FD0346012B16D1F8684FF0DE
:104E400019014FF0000206F0C8FEB86879683A68A8
:104E5000BB6A07F083FBF8684FF0190144F625623E
:104E6000C0F6000206F0B9FE4CE03A68BB68D31AFF
:104E700003F10103FB61BA6A7B68D31A03F10103F2
:104E8000BB61F868FFF7F2FE786145F20873C0F67F
:104E90000103FA6853F8222040F2D063C2F2000303
:104EA000F96853F82130796801FB03F1BB68C91830
:104EB00040F2D863C2F20003F86853F8203003FBD5
:104EC00001F3194640F2CC63C2F20003F86853F8CC
:104ED0002030786900FB03F3CB18D3183B613A69A3
:104EE00040F2D063C2F20003F96853F82110FB6965
:104EF000CB1A0093FB6A0193F8681146FA69BB6903
:104F0000FFF708FD07F12007BD4680BD80B400AF64
:104F10004FF43043C4F202034FF002029A60BD46E0
:104F200080BC704780B582B000AF4FF4D043C4F26C
:104F300001034FF00102DA634FF000037B6078E079
:104F400040F2C863C2F200037A6853F82230002BA3
:104F50006BDB45F20873C0F601037A6853F8222030
:104F600040F2D063C2F20003796853F8211040F296
:104F7000D463C2F20003786853F8203003FB01F1D8
:104F800040F2C863C2F20003786853F8203003FB94
:104F900001F140F2D863C2F20003786853F8203080
:104FA00003FB01F3D3183B6040F29403C2F2000309
:104FB0007A6853F822309B6A40F29403C2F20003ED
:104FC0007A6853F822304FF000029A6240F294035C
:104FD000C2F200037A6853F822303A689A624FF0BE
:104FE0000100FCF7BFF840F2C863C2F200037A6820
:104FF00053F822307868194608F0ECFB40F2C86399
:10500000C2F200037A6853F8221040F2CC63C2F275
:1050100000037A6843F8221040F2C863C2F200032A
:105020007A684FF0FF3143F822107B6803F10103E7
:105030007B607B68002B83DD07F10807BD4680BDE0
:1050400090B593B000AFF860B9607A604FF000039C
:105050007B64BB6803F1FF330D2B00F2F48001A2E7
:1050600052F823F09D50000847520008A75000084E
:10507000155100082F5100084F52000879510008BF
:105080005F51000835510008C5510008475200081B
:10509000D951000803520008FD500008FB6818466B
:1050A000FFF792FCD4E07B683B6440F29403C2F2C9
:1050B0000003FA6853F8222045F20873C0F6010392
:1050C000F96853F821103B6C586840F2D063C2F283
:1050D0000003FC6853F8243003FB00F040F2D8636F
:1050E000C2F20003FC6853F8243003FB00F3CB1832
:1050F00093624FF00200FCF735F8A9E07B68FB6390
:10510000FB6B196840F2C863C2F20003FA6843F807
:1051100022109DE07B68BB63F968BB6B1A68BB6BB0
:105120001B79084611461A46FFF75CFB90E0FFF733
:1051300043FC8DE07B687B6340F29403C2F2000382
:10514000FA6853F822207B6B1B68002B0CBF0023EE
:105150000123DBB210461946FCF7BCF878E07B6807
:105160003B63F9683B6B1A683B6B5B68084611460A
:105170001A46FFF7A5FA6BE007F1180207F11403CE
:10518000F86811461A4608F0C5F97B68FB62FB6AAD
:10519000196840F2D063C2F20003FA6843F82210A3
:1051A000FB6A596840F2D463C2F20003FA6843F81C
:1051B0002210F968BA697B69084611461A46FFF75A
:1051C0007FFA45E07B68BB62FA68BB6A1B681046E1
:1051D0001946FFF7DDFA3BE07B687B6240F29403FF
:1051E000C2F20003FA6853F822207B6A1B68002B86
:1051F0000CBF00230123DBB210461946FFF71CFA4F
:1052000026E07B683B623B6A1B6803F47F034FEA3E
:1052100013423B6A1B6803F47F431A433B6A1B68D3
:10522000DBB24FEA03431343FB6140F29403C2F243
:105230000003FA6853F82230FA69DA604FF002008E
:10524000FBF790FF04E04FF0FF337B6400E000BF0A
:105250007B6C184607F14C07BD4690BD80B582B007
:1052600000AF47F2C450C0F6010047F2A071C0F68B
:1052700001014FF000024FF0000309F079F94FF0FF
:1052800000004FF0F0014FF4A07206F035FC4FF033
:1052900000004FF0F0014FF4A07206F016FC4FF042
:1052A00000037B6045E040F2C863C2F200037A6805
:1052B0004FF0FF3143F8221045F20873C0F60103A6
:1052C0007A6853F822307868194606F0E9FB786866
:1052D00006F000FF03464FEAE30140F2D863C2F252
:1052E00000037A6843F8221078684FF0210144F6F1
:1052F000B942C0F6000206F070FC78684FF0230156
:1053000044F63952C0F6000206F067FC7868FFF7F1
:105310000DF90346042B08D878684FF0190144F6BC
:105320002562C0F6000206F058FC7B6803F1010319
:105330007B607B68002BB6DD07F10807BD4680BDAA
:1053400080B582B000AF4FF00003FB80FBF7B6FAE8
:1053500000F08EF90346FB80FA8840F611039A426A
:1053600002D04FF000030BE000F0B4F84FF0010062
:105370004FF0010100F0C8F800F000F94FF0010310
:10538000184607F10807BD4680BD00BF80B586B04E
:1053900000AF4FF082004FF04001FBF719FB0346CE
:1053A000FB82B7F91630002B02DA4FF000038BE0D6
:1053B000FB8A03F08003002B07D149F6B413C2F235
:1053C00001034FF001021A7006E049F6B413C2F26D
:1053D00001034FF000021A7049F6B413C2F2010340
:1053E0001B78002B48D100F0B3F903463B6100F075
:1053F000EDF90346FB6040F2FC63C2F200031B6858
:105400003A699A4207D940F2FC63C2F200031B6872
:105410003A69D31A06E040F2FC63C2F200031A684C
:105420003B69D31ABB6040F20073C2F200031B68F1
:10543000FA689A4207D940F20073C2F200031B686F
:10544000FA68D31A06E040F20073C2F200031A6849
:10545000FB68D31A7B60BA687B68D318052B0BD91D
:1054600040F2FC63C2F200033A691A6040F2007332
:10547000C2F20003FA681A6040F2FC63C2F2000351
:105480001B689AB249F6B413C2F201035A8040F283
:105490000073C2F200031B689AB249F6B413C2F259
:1054A00001039A804FF082004FF04B014FF0010250
:1054B000FBF7DEFB4FF082004FF04B014FF0000294
:1054C000FBF7D6FB4FF00103184607F11807BD465E
:1054D00080BD00BF80B500AF4FF082004FF00301E8
:1054E0004FF00202FBF7C4FB4FF45460C0F203001C
:1054F000FBF7AEFC4FF082004FF003014FF00002CB
:10550000FBF7B6FB80BD00BF80B584B000AF02469C
:105510000B46FA71BB714FF00003FB734FF0820032
:105520004FF00401FBF754FA0346BB81B7F90C3086
:10553000002B02DA4FF001031BE0BB89FB73BB7940
:10554000002B08D0FB796FEA0303DAB2FB7B134030
:10555000DBB2FB7303E0FA7BFB791343FB73FB7B4A
:105560004FF082004FF004011A46FBF781FB4FF029
:105570000003184607F11007BD4680BD80B500AF97
:105580004FF002004FF00101FFF7BEFF4FF0820025
:105590004FF020014FF04902FBF76AFB4FF45460D3
:1055A000C0F20300FBF754FC4FF082004FF02101E2
:1055B0004FF00102FBF75CFB4FF01E004FF00001C3
:1055C00000F08CF84FF082004FF041014FF09A024A
:1055D000FBF74EFB4FF082004FF04A014FF0010203
:1055E000FBF746FB4FF082004FF04B014FF00102FA
:1055F000FBF73EFB4FF082004FF04B014FF00002F3
:10560000FBF736FB4FF082004FF056014FF00102DE
:10561000FBF72EFB4FF082004FF058014FF00102D4
:10562000FBF726FB4FF082004FF040014FF00302E2
:10563000FBF71EFB4FF082004FF00B014FF0FF0213
:10564000FBF716FB49F6B413C2F201034FF0010257
:105650001A7049F6B413C2F201034FF000025A80E7
:1056600049F6B413C2F201034FF000029A8080BDE4
:1056700080B582B000AF4FF00003FB804FF0820096
:105680004FF00001FBF7A4F90346BB804FF0820006
:105690004FF00101FBF79CF903467B80B7F904301A
:1056A000002B02DA4FF0000313E0B7F90230002BB1
:1056B00002DA4FF000030CE0BB88FB80FB884FEA66
:1056C0000323FB80FB881A467B8813439BB2FB8035
:1056D000FB88184607F10807BD4680BD80B584B039
:1056E00000AF02460B46FA71BB714FF00003FB732B
:1056F0004FF082004FF01701FBF76AF90346BB81B8
:10570000B7F90C30002B02DA4FF001031BE0BB8924
:10571000FB73BB79002B04D0FA7BFB791343FB733B
:1057200007E0FB796FEA0303DAB2FB7B1340DBB2DD
:10573000FB73FB7B4FF082004FF017011A46FBF71B
:1057400097FA4FF00003184607F11007BD4680BDD9
:1057500080B582B000AF4FF04D0000F067F803460F
:105760007B607A6840F6B8339A4206DC7B68C3F502
:10577000716303F10E037B6005E07B68C3F56D6325
:1057800003F108037B607B6848F68902C8F688024B
:1057900082FB0312D2184FEAE2024FEAE373D31AF4
:1057A0003B603B68002B03DC4FF000033B6005E0EF
:1057B0003B68EF2B02DD4FF0EF033B603B689BB291
:1057C000184607F10807BD4680BD00BF80B582B00E
:1057D00000AF4FF04F0000F029F803463B603B68F4
:1057E000A3F5B4733B603A684AF2E923C2F68B63CF
:1057F00083FB02134FEA63014FEAE273CB1A7B602B
:105800007B68002B03DC4FF000037B6007E07A68C5
:1058100040F23F139A4202DD40F23F137B607B6807
:105820009BB2184607F10807BD4680BD80B584B01D
:1058300000AF78604FF00003FB817B68DBB24FF074
:1058400082001946FBF7C4F80346BB817B68DBB2D4
:1058500003F10103DBB24FF082001946FBF7B8F801
:1058600003467B81B7F90C30002B02DA4FF00003BE
:1058700011E0B7F90A30002B02DA4FF000030AE01A
:10588000B7F90C304FEA03239BB21A467B891343C6
:105890009BB2FB81FB89184607F11007BD4680BD0E
:1058A00080B400AF49F6C413C2F201031B68184666
:1058B000BD4680BC704700BF80B400AFBD4680BC11
:1058C000704700BF1FB500234FF440720391694633
:1058D0000293009203F00EFE05B000BD10B59EB01D
:1058E0000446684607F02AFE094B186807F006F9D7
:1058F000B4F90000B4F90210B4F90420B4F9063088
:1059000009F058FE684607F023FE1EB010BD00BF28
:105910000407002010B59EB00446684607F00EFE4E
:10592000094B186807F0EAF8B4F90000B4F902105E
:10593000B4F90420B4F9063009F03CFE684607F0DB
:1059400007FE1EB010BD00BF0407002007B5684663
:1059500003F0D0F86846FFF7C1FF0EBD07B56846F3
:1059600003F0C8F86846FFF7D5FF0EBD70477047D3
:1059700070477047704700002DE9F74F274C0588A6
:10598000B0F802808788C688206807F0B7F82DB283
:105990003FB20FFA88F8A06807F0B0F808F1010AE2
:1059A00036B2404629463A4608F0E4F951463246B6
:1059B000284607F06DFF05F1010B07F1FF3920685C
:1059C00007F09CF8504659464A4608F0D3F908F1CA
:1059D000020306F1FF38194642465846019307F084
:1059E00057FF206907F08AF8304659463A4608F0D2
:1059F000C1F951463246384607F04AFFE06807F0E1
:105A00007DF84046A91C4A4608F0B4F90199484679
:105A1000424603B0BDE8F04F07F03ABFA0000020B7
:105A200007B5684603F066F86846FFF7A5FF0EBDA8
:105A30002DE9F843B0F80080194C47888688C5885E
:105A400020682DB20FFA88F936B23FB207F056F847
:105A50002B4639463246484609F0ACFD09F10108AB
:105A60000137206907F04AF8A5F10209B21E38464D
:105A7000414608F07FF939464A46404607F008FF9C
:105A8000013E606807F03AF8681E4146324608F069
:105A900071F9304639464A46BDE8F84307F0F8BE8A
:105AA000A000002007B5684603F024F86846FFF719
:105AB000BFFF0EBDF0B587B0B0F90C70B0F90E6045
:105AC000B0F91050B0F90AE0009102210191448A26
:105AD0000294B0F908100391446804948469F91899
