:020000040800F2
:1000000010A4012081130008652A0008712A000845
:10001000792A0008812A0008892A000800000000C7
:100020000000000000000000000000009D2A000801
:10003000912A000800000000A92A0008B52A00083B
:10004000FD130008FD130008FD130008FD13000850
:10005000FD130008FD130008FD130008FD13000840
:10006000FD130008FD130008FD130008FD13000830
:10007000FD130008FD130008FD130008FD13000820
:10008000FD130008FD130008FD130008FD13000810
:10009000FD130008FD130008FD130008FD13000800
:1000A000FD130008FD130008FD130008FD130008F0
:1000B000FD130008FD130008FD130008FD130008E0
:1000C000FD130008FD130008FD130008FD130008D0
:1000D000FD130008FD130008FD130008FD130008C0
:1000E000FD130008FD130008FD130008FD130008B0
:1000F000FD130008FD130008FD130008FD130008A0
:10010000FD130008FD130008FD130008FD1300088F
:10011000FD130008FD130008FD130008FD1300087F
:10012000FD130008FD130008FD130008FD1300086F
:10013000FD130008FD130008FD130008FD1300085F
:10014000FD130008FD130008FD130008FD1300084F
:10015000FD130008FD130008FD130008FD1300083F
:10016000FD130008FD130008FD130008FD1300082F
:10017000FD130008FD130008FD130008FD1300081F
:10018000FD130008FD130008FD130008FD1300080F
:10019000FD130008FD130008FD130008FD130008FF
:1001A0000D2B0008FD130008192B000880B582B044
:1001B00000AF4FF00003FB7140F24C73C2F200033A
:1001C0001B78002B0CD040F24C73C2F200031B785A
:1001D000012B02D14FF0010339E04FF0000336E06C
:1001E00000F05EF800F034FA4FF0000000F044F840
:1001F0000346BB804FF0000045F63C2100F02CF890
:100200004FF0000000F038F803467B80BB884FF0C9
:100210000000194600F020F87A8845F63C239A42FF
:1002200002D14FF00103FB71FB79012B07D140F2A2
:100230004C73C2F200034FF001021A7006E040F264
:100240004C73C2F200034FF002021A70FB79184699
:1002500007F10807BD4680BD80B483B000AF786069
:100260000B467B807B6803F150437A881A8007F144
:100270000C07BD4680BC704780B485B000AF786085
:100280004FF00003FB817B6803F150431B88FB8127
:10029000FB89184607F11407BD4680BC704700BFB4
:1002A00080B582B000AF4FF07E004FF0010101F049
:1002B000F9FF4FF002033B714FF002037B714FF0E7
:1002C0000003BB714FF00003FB714FF48060C4F278
:1002D00002004FF005014FF00C0203F02DF94FF42E
:1002E0008060C4F202004FF006014FF00C0203F0F0
:1002F00023F94FF060033B603B464FF48060C4F24B
:100300000200194603F076F84FF40060C4F20200D0
:100310004FF000014FF00C0203F00EF94FF0010313
:100320003B603B464FF40060C4F20200194603F004
:1003300061F84FF44060C4F202004FF000014FF04A
:100340000C0203F0F9F84FF44060C4F202004FF0E1
:1003500001014FF00C0203F0EFF84FF44060C4F2DB
:1003600002004FF008014FF00C0203F0E5F84FF4E3
:100370004060C4F202004FF009014FF00C0203F09C
:10038000DBF84FF44060C4F202004FF00A014FF076
:100390000C0203F0D1F84FF44060C4F202004FF0B9
:1003A0000E014FF00C0203F0C7F84FF44060C4F2A6
:1003B00002004FF00F014FF00C0203F0BDF84CF2B9
:1003C00003733B603B464FF44060C4F202001946A1
:1003D00003F010F84FF48050C4F202004FF0000117
:1003E0004FF00C0203F0A8F84FF48050C4F2020062
:1003F0004FF001014FF00C0203F09EF84FF48050D3
:10040000C4F202004FF007014FF00C0203F094F821
:100410004FF48050C4F202004FF008014FF00C027C
:1004200003F08AF84FF48050C4F202004FF0090143
:100430004FF00C0203F080F84FF48050C4F2020039
:100440004FF00A014FF00C0203F076F84FF48050A1
:10045000C4F202004FF00B014FF00C0203F06CF8F5
:100460004FF48050C4F202004FF00C014FF00C0228
:1004700003F062F84FF48050C4F202004FF00D0117
:100480004FF00C0203F058F84FF48050C4F2020011
:100490004FF00E014FF00C0203F04EF84FF4805075
:1004A000C4F202004FF00F014FF00C0203F044F8C9
:1004B0004FF683733B603B464FF48050C4F202001A
:1004C000194602F097FF4FF4A050C4F202004FF01B
:1004D00000014FF00C0203F02FF84FF4A050C4F2CB
:1004E00002004FF001014FF00C0203F025F84FF429
:1004F000A050C4F202004FF002014FF00C0203F0D2
:100500001BF84FF4A050C4F202004FF003014FF06B
:100510000C0203F011F84FF4A050C4F202004FF0A7
:1005200004014FF00C0203F007F84FF4A050C4F29E
:1005300002004FF005014FF00C0202F0FDFF4FF4F6
:10054000A050C4F202004FF00B014FF00C0202F079
:10055000F3FF4FF4A050C4F202004FF00C014FF033
:100560000C0202F0E9FF4FF4A050C4F202004FF079
:100570000D014FF00C0202F0DFFF4FF4A050C4F267
:1005800002004FF00E014FF00C0202F0D5FF4FF4C5
:10059000A050C4F202004FF00F014FF00C0202F025
:1005A000CBFF4FF63F033B603B464FF4A050C4F2F5
:1005B0000200194602F01EFF4FF4C050C4F20200C0
:1005C0004FF000014FF00C0202F0B6FF4FF4C050A4
:1005D000C4F202004FF001014FF00C0202F0ACFF38
:1005E0004FF4C050C4F202004FF004014FF00C026F
:1005F00002F0A2FF4FF4C050C4F202004FF0050118
:100600004FF00C0202F098FF4FF4C050C4F2020009
:100610004FF008014FF00C0202F08EFF4FF4C05073
:10062000C4F202004FF00F014FF00C0202F084FF01
:1006300048F233133B603B464FF4C050C4F2020013
:10064000194602F0D7FE07F10807BD4680BD00BF7E
:1006500080B592B000AF4FF001004FF0010101F002
:100660004BFE4FF002033B604FF007037B604FF0FF
:100670000403BB604FF00703FB604FF002033B61D4
:100680004FF002037B614FF00203BB614FF00103A7
:10069000FB614FF000033B624FF004037B624FF0BD
:1006A0001003BB624FF04003FB624FF4C0733B6327
:1006B0004FF000037B634FF40063BB634FF0000314
:1006C000FB634FF400533B643B467B6407F11C0320
:1006D000184603F03DFA00F005F807F14807BD465B
:1006E00080BD00BF80B586B000AF4FF000037B61D6
:1006F0004FF001037B604FF00803BB604FF0010334
:10070000FB604FF000033B6100BF4FF001004FF072
:10071000200103F035FB0346002BF6D107F104035B
:10072000184603F0F1FA4FF00A0000F075F84FF0A8
:1007300002037B604FF00803BB604FF00103FB60D6
:100740004FF000033B6100BF4FF001004FF020016C
:1007500003F016FB0346002BF6D107F104031846FD
:1007600003F0D2FA4FF003037B604FF00803BB6045
:100770004FF00403FB604FF000033B6100BF4FF0FC
:1007800001004FF0200103F0FBFA0346002BF6D1E5
:1007900007F10403184603F0B7FA00BF4FF0010059
:1007A0004FF0200103F0ECFA0346002BF6D107F1DD
:1007B0000403184603F0A8FA40F231237B614FF09E
:1007C00004037B604FF00803BB604FF00103FB6044
:1007D0007B693B6100BF4FF001004FF0200103F047
:1007E000CFFA0346002BF6D107F10403184603F0B5
:1007F0008BFA40F2AB2003F0ABFA00BF4FF00100E0
:100800004FF0200103F0BCFA0346002BF6D107F1AC
:100810001807BD4680BD00BF80B485B000AF7860CA
:100820004FF00003FB607A6848F2A063C0F2010356
:1008300003FB02F3FB6003E0FB6803F1FF33FB60A3
:10084000FB68002BF8D107F11407BD4680BC704748
:1008500080B500AF40F68020C2F200004FF4C831EE
:100860000EF0D2FF80BD00BF80B483B000AF7860CF
:100870000B46FB70FB78002B0CD04FF43043C4F2D6
:1008800002034FF43042C4F2020211687A680A434C
:100890001A600DE04FF43043C4F202034FF43042CB
:1008A000C4F2020211687A686FEA02020A401A6012
:1008B00007F10C07BD4680BC704700BF80B582B011
:1008C00000AF40F24D73C2F200031B78002B7AD1C7
:1008D0004FF400004FF0010101F038FD40F2000339
:1008E000C2F200039B6818464FF0010101F0DAFCE8
:1008F00040F20003C2F200039B6918464FF0010169
:1009000001F0D0FC4FF400004FF0010101F072FD46
:100910004FF400004FF0000101F06CFD40F20003C5
:10092000C2F200031A6840F20003C2F200031B7B0C
:10093000104619464FF0040202F0FEFD40F200039B
:10094000C2F200031A6940F20003C2F200031B7FE7
:10095000104619464FF0040202F0EEFD4FF002037C
:100960003B714FF002037B714FF00103BB714FF0FD
:100970000003FB7140F20003C2F200039B883B605E
:1009800040F20003C2F200031A683B4610461946C3
:1009900002F030FD40F20003C2F200039B8A3B608C
:1009A00040F20003C2F200031A693B4610461946A2
:1009B00002F020FD00F062FA40F24D73C2F2000333
:1009C0004FF001021A7007F10807BD4680BD00BF55
:1009D00080B584B000AF02460B46FA71BB714FF090
:1009E00000037B814FF44053FB604FF4B840C4F2E6
:1009F00000004FF0010103F063FC4FF44053FB6033
:100A00000DE0FB68002B04D0FB6803F1FF33FB60B3
:100A100005E04FF0FF3000F05DFA034622E14FF4AD
:100A2000B840C4F200004FF00101C1F2000103F030
:100A300007FD0346002BE4D04FF4B840C4F2000099
:100A40004FF0000103F09AFCFB794FF4B840C4F278
:100A5000000019464FF0000203F072FC4FF44053BF
:100A6000FB600DE0FB68002B04D0FB6803F1FF3353
:100A7000FB6005E06FF0010000F02CFA0346F1E0A6
:100A80004FF4B840C4F200004FF00201C1F200017F
:100A900003F0D6FC0346002BE4D04FF4B843C4F275
:100AA00000031B8B4FF44053FB600DE0FB68002BF1
:100AB00004D0FB6803F1FF33FB6005E06FF0020038
:100AC00000F008FA0346CDE04FF4B840C4F200004D
:100AD0004FF08001C1F2000103F0B2FC0346002B8D
:100AE000E4D0BB794FF4B840C4F20000194603F0DB
:100AF00089FC4FF44053FB600DE0FB68002B04D0F1
:100B0000FB6803F1FF33FB6005E06FF0030000F0CA
:100B1000E1F90346A6E04FF4B840C4F200004FF0FC
:100B20008001C1F2000103F08BFC0346002BE4D0EE
:100B30004FF4B840C4F200004FF00401C1F20001CC
:100B400003F07EFC0346002BD7D04FF4B840C4F22C
:100B500000004FF0010103F0B3FB4FF44053FB6082
:100B60000DE0FB68002B04D0FB6803F1FF33FB6052
:100B700005E06FF0040000F0ADF9034672E04FF4B9
:100B8000B840C4F200004FF00101C1F2000103F0CF
:100B900057FC0346002BE4D0FB794FF4B840C4F275
:100BA000000019464FF0010203F0CAFB4FF4405316
:100BB000FB600DE0FB68002B04D0FB6803F1FF3302
:100BC000FB6005E06FF0050000F084F9034649E0A2
:100BD0004FF4B840C4F200004FF00201C1F200012E
:100BE00003F02EFC0346002BE4D04FF4B843C4F2CC
:100BF00000031B8B4FF44053FB600DE0FB68002BA0
:100C000004D0FB6803F1FF33FB6005E06FF00600E2
:100C100000F060F9034625E04FF4B840C4F200004C
:100C20004FF04001C1F2000103F00AFC0346002B23
:100C3000E4D04FF4B840C4F200004FF0010103F0DB
:100C40005FFB4FF4B840C4F2000003F0EBFB034637
:100C50007B814FF4B840C4F200004FF0010103F073
:100C60008DFB7B891BB2184607F11007BD4680BD7E
:100C700080B584B000AF13460246FA710A46BA71D5
:100C80007B714FF000037B814FF44053FB604FF4C6
:100C9000B840C4F200004FF0010103F011FB4FF423
:100CA0004053FB600DE0FB68002B04D0FB6803F1B0
:100CB000FF33FB6005E04FF0FF3000F00BF9034617
:100CC000C0E04FF4B840C4F200004FF00101C1F29F
:100CD000000103F0B5FB0346002BE4D0FB794FF491
:100CE000B840C4F2000019464FF0000203F028FBA0
:100CF0004FF44053FB600DE0FB68002B04D0FB6811
:100D000003F1FF33FB6005E06FF0010000F0E2F853
:100D1000034697E04FF4B840C4F200004FF00201E0
:100D2000C1F2000103F08CFB0346002BE4D04FF42A
:100D3000B843C4F200031B8B4FF44053FB600DE03B
:100D4000FB68002B04D0FB6803F1FF33FB6005E078
:100D50006FF0020000F0BEF8034673E04FF4B840B5
:100D6000C4F200004FF08001C1F2000103F068FB03
:100D70000346002BE4D0BB794FF4B840C4F2000026
:100D8000194603F03FFB4FF44053FB600DE0FB6856
:100D9000002B04D0FB6803F1FF33FB6005E06FF02C
:100DA000030000F097F803464CE04FF4B840C4F25B
:100DB00000004FF08001C1F2000103F041FB034647
:100DC000002BE4D07B794FF4B840C4F20000194600
:100DD00003F018FB4FF44053FB600DE0FB68002B61
:100DE00004D0FB6803F1FF33FB6005E06FF0040003
:100DF00000F070F8034625E04FF4B840C4F200005C
:100E00004FF08001C1F2000103F01AFB0346002BF2
:100E1000E4D04FF4B840C4F200004FF00401C1F236
:100E2000000103F00DFB0346002BD7D04FF4B84070
:100E3000C4F200004FF0010103F062FA4FF000032A
:100E40007B817B891BB2184607F11007BD4680BD28
:100E500080B483B000AF786000BF7B68002B0CBF0C
:100E600000220122D2B203F1FF337B60002AF4D1C9
:100E700007F10C07BD4680BC704700BF80B584B049
:100E800000AF4FF00003BB804BF6FF73FB804FF0C9
:100E900000033B814FF480637B814FF48043BB812F
:100EA00048F2A063C0F201033B604FF4B840C4F2C3
:100EB00000004FF0010103F0E3F93B464FF4B84066
:100EC000C4F20000194603F005F907F11007BD460A
:100ED00080BD00BF80B584B000AF0346FB80FB88B7
:100EE000FB814FF4B840C4F200004FF0010103F061
:100EF00007FA4FF4B840C4F200004FF0010103F0CC
:100F00005DFA4FF4B840C4F200004FF0000103F066
:100F100055FA4FF4B840C4F2000003F097F8FFF719
:100F2000ADFFFB891BB2184607F11007BD4680BD17
:100F300080B483B000AF0346FB714FF0A003C4F24E
:100F40000E23FA791A6007F10C07BD4680BC704782
:100F500080B489B000AF78604FF00003FB614FF0C0
:100F60000003BB614FF000037B614FF000033B6166
:100F70004FF00003FB604FF00003BB604FF4D04222
:100F8000C4F201024FF4D043C4F2010399684FF454
:100F90007843CFF200030B4093607B681B694FEAF4
:100FA0000343FB614FF4D043C4F201034FF4D0423A
:100FB000C4F2010291687A685069FA6902430A43EF
:100FC0009A604FF4D042C4F201024FF4D043C4F20D
:100FD0000103D9684FF47843CFF200030B40D3608C
:100FE0007B689B694FEA0343BB614FF4D043C4F273
:100FF00001034FF4D042C4F20102D1687A68D0698B
:10100000BA6902430A43DA604FF4D042C4F20102E3
:101010004FF4D043C4F2010319694FF47843CFF27F
:1010200000030B4013617B681B6A4FEA03437B613B
:101030004FF4D043C4F201034FF4D042C4F2010292
:1010400011697A68506A7A6902430A431A614FF457
:10105000D042C4F201024FF4D043C4F201035969F3
:101060004FF47843CFF200030B4053617B689B6AD7
:101070004FEA03433B614FF4D043C4F201034FF402
:10108000D042C4F2010251697A68D06A3A690243D7
:101090000A435A614FF4D042C4F201024FF4D043E4
:1010A000C4F20103996948F68F03C0F6FE730B4042
:1010B00093614FF4D043C4F201034FF4D042C4F221
:1010C000010291697A6810687A68526810437A68F8
:1010D000926810437A68D26802430A439A617B6837
:1010E0005B6B4FEA0323FB607B681B6B4FEA034398
:1010F000BB604FF4D043C4F201034FF4D042C4F2BA
:101100000102D26A02F07F42DA624FF4D043C4F2A5
:1011100001034FF4D042C4F20102D16AB868FA6800
:1011200010437A68926B02430A43DA6207F124079C
:10113000BD4680BC704700BF80B483B000AF03469B
:10114000FB71FB79002B0CD04FF4D043C4F20103A8
:101150004FF4D042C4F20102926942F001029A6156
:101160000BE04FF4D043C4F201034FF4D042C4F279
:101170000102926922F001029A6107F10C07BD4653
:1011800080BC704780B483B000AF78604FF4D04328
:10119000C4F201037A685A6207F10C07BD4680BCAD
:1011A000704700BF80B489B000AF786039604FF0FD
:1011B0000003FB614FF00003BB614FF000037B6154
:1011C0004FF000033B614FF00003FB604FF0000362
:1011D000BB603B685B684FEA0343FB617B685B680D
:1011E00003F470427B685A603B681A68FB691A43D3
:1011F0007B685A603B68DB684FEA0343BB617B68EE
:101200009B6803F470427B689A603B689A68BB698C
:101210001A437B689A607B681B6923F007027B682E
:101220001A613B681A697B681A613B68DB694FEA9F
:1012300003237B613B681B6A4FEA03433B613B68C6
:101240005B6A4FEA0363FB607B689B697B684FF0D6
:1012500000029A613B689A697B691A433B691A43A9
:10126000FB681A437B689A617B685B6923F0FF0225
:101270007B685A613B685A697B685A617B68DB69A5
:1012800023F4E06323F007037A68D3613B689A6A2A
:101290003B68DB6A1A437B68DA617B689B6A7B6820
:1012A0004FF000029A623B681A6B7B689A623B6857
:1012B0009B6B4FEA0343BB607B68DB6A03F0E02271
:1012C0007B68DA623B685A6BBB681A437B68DA62F8
:1012D0007B681B6B23F4FF6323F007037A681363B7
:1012E0003B68DA6B7B681A6307F12407BD4680BC54
:1012F000704700BF80B483B000AF78600B46FB70CE
:10130000FB78002B06D07B681B6843F001027B68EA
:101310001A6005E07B681B6823F001027B681A6095
:1013200007F10C07BD4680BC704700BF80B483B096
:1013300000AF78600B46FB70FB78002B0CD04FF4AD
:10134000D043C4F201034FF4D042C4F20102516B06
:101350007A680A435A630DE04FF4D043C4F20103A4
:101360004FF4D042C4F20102516B7A686FEA020274
:101370000A405A6307F10C07BD4680BC704700BFA6
:1013800080B582B000AF48F63C23C0F601037B6015
:1013900040F20003C2F200033B600BE07B681A6876
:1013A0003B681A603B6803F104033B607B6803F110
:1013B00004037B603A6840F24C73C2F200039A4225
:1013C000ECD30B480B494FF000028842B8BF40F8FD
:1013D000042BFFF6FAAFDFF82000016841F470013A
:1013E000016000F027FA07F10807BD4680BD000044
:1013F0004C0700200C9C012088ED00E080B400AF79
:10140000FEE700BF80B584B000AF4FF00003FB7370
:1014100062E0F97B40F22002C2F200020B464FEA82
:1014200083035B184FEA8303D31803F10C031B6893
:1014300018464FF0010100F035FFF97B40F2200221
:10144000C2F200020B464FEA83035B184FEA8303A4
:10145000D31803F108031B887B604FF001033B7234
:101460004FF00003BB724FF00103FB724FF0020319
:101470007B72F97B40F22002C2F200020B464FEA77
:1014800083035B184FEA8303D31803F104031A683C
:1014900007F104031046194601F0ACFFF97B40F256
:1014A0002002C2F200020B464FEA83035B184FEAA8
:1014B0008303D31803F110031B78002B04D1FB7BAB
:1014C000184600F011F803E0FB7B184600F036F8F0
:1014D000FB7B03F10103FB73FB7B012B99D907F124
:1014E0001007BD4680BD00BF80B483B000AF034687
:1014F000FB71F97940F22002C2F200020B464FEA7A
:1015000083035B184FEA8303D31803F104031868BD
:10151000F97940F22002C2F200020B464FEA83033F
:101520005B184FEA8303D31803F108031B88438336
:1015300007F10C07BD4680BC704700BF80B483B084
:1015400000AF0346FB71F97940F22002C2F20002BB
:101550000B464FEA83035B184FEA8303D31803F16A
:1015600004031868F97940F22002C2F200020B4627
:101570004FEA83035B184FEA8303D31803F1080390
:101580001B88038307F10C07BD4680BC704700BF72
:1015900090B482B000AF0346FB71F97940F22002AB
:1015A000C2F200020B464FEA83035B184FEA830343
:1015B000D31803F104031868F97940F22002C2F24B
:1015C00000020B464FEA83035B184FEA8303D318EC
:1015D00003F104031B685C69F97940F22002C2F24E
:1015E00000020B464FEA83035B184FEA8303D318CC
:1015F00003F108031B886340436107F10807BD46F8
:1016000090BC704780B483B000AF03463960FB7173
:1016100097F90730002B10DA4FF46D43CEF2000338
:10162000FA7902F00F02A2F104013A68D2B24FEA4D
:101630000212D2B25B181A760DE04FF46143CEF27B
:10164000000397F907103A68D2B24FEA0212D2B2F9
:101650005B1883F8002307F10C07BD4680BC704778
:1016600080B582B000AF78607B6803F1FF326FF025
:101670007F439A4202D94FF001031DE04EF210035E
:10168000CEF200037A6802F1FF325A604FF0FF3069
:101690004FF00F01FFF7B6FF4EF21003CEF200033A
:1016A0004FF000029A604EF21003CEF200034FF0AA
:1016B00007021A604FF00003184607F10807BD46FD
:1016C00080BD00BF80B584B000AF4FF480504FF0B4
:1016D000010100F0E7FD3B46184600F0DBFC7A68AC
:1016E00044F6D353C1F26203A3FB02134FEA9313F0
:1016F0001846FFF7B5FF01F015FA49F69823C2F234
:1017000001034FF000021A6003F02AFE0346012B8A
:1017100002D04FF0000309E00DF07CFC0346002BE3
:1017200002D04FF0000301E04FF00103184607F12B
:101730001007BD4680BD00BF80B584B000AF03F088
:1017400035FE49F69823C2F201031B68002B0CD129
:1017500049F68C23C2F201035B887B6049F68C2337
:10176000C2F201039B88BB603FE049F69823C2F2B6
:1017700001031B68012B0ED149F68C23C2F2010331
:101780005B88C3F1EF03BB6049F68C23C2F201030F
:101790009B887B6029E049F69823C2F201031B680D
:1017A000022B12D149F68C23C2F201035B88C3F1EC
:1017B000EF037B6049F68C23C2F201039B88C3F5DB
:1017C0009F7303F10103BB600FE049F68C23C2F263
:1017D00001035B88BB6049F68C23C2F201039B883E
:1017E000C3F59F7303F101037B6049F68C23C2F2BA
:1017F00001031B78002B14BF00230123DBB23B73D2
:101800003A7B40F24E73C2F200031B789A420DD02D
:101810003A7B40F24E73C2F200031A704FF000039D
:101820007B7307F1040318460BF054FF07F1100710
:10183000BD4680BD80B500AF01F0D2FEFFF742FF8C
:1018400000F096FBFEE700BF80B500AF4FF0000050
:1018500001F034F8034607EE903AB8EEE77A40F22A
:101860007473C2F20003D3ED007AC7EE277AFCEE60
:10187000E77A40F26473C2F20003C3ED007A40F2EB
:101880006473C2F200031B689AB240F26873C2F23A
:1018900000035A8040F25073C2F200035A6840F2CB
:1018A0006873C2F200035B881BB21046194604F04D
:1018B000BBFB80BD90B58FB002AF786039603B68EC
:1018C000022B3FD145F66853C0F6010307F11C0413
:1018D0000FCB84E80F0046F68C40C0F601000BF0F9
:1018E00029FF0CF003F9F86207F11403184607F01A
:1018F000F7F807F10C037868194607F081F8BB8AFE
:101900009AB2FB6A9BB2D3189BB29BB23B834FF651
:10191000FF700BF03DFF07F11C03184614F034F97B
:1019200003461C4607F11C0107F1140240F29C23F8
:10193000C2F200030093084611464FF0020223460C
:101940000CF08AFF07F13407BD4690BD80B584B026
:1019500000AF786039603B681B68FB60786807F00F
:10196000C7F8B860BB68B3F5087F26D0BB68B3F58D
:10197000B87F22D0BB68FE2B1FD0BB68FF2B1CD0CA
:10198000FB68002B0CD040F27473C2F200034CF6DB
:10199000CD42C4F25C121A60786806F04EFF0DE08A
:1019A00040F27473C2F200034FF00002C4F29C12C2
:1019B0001A60786806F0C7FB00E000BF07F1100767
:1019C000BD4680BD90B58BB002AF786078684FF4AB
:1019D000087107F0D4F8F86178684FF4B87107F02F
:1019E000CEF8B86140F27873C2F200031B6883F04E
:1019F000010240F27873C2F200031A6040F2787379
:101A0000C2F200031B68002B54D0786807F0C8F8B6
:101A10007861B86945F67851C0F6010106F0F8FA28
:101A2000B8696FF004016FF0040206F0E6FE786812
:101A30004FF0000104F094FF07F10C037869194698
:101A400007F043F8F86940F27C71C2F2000106F039
:101A50006FFF786941F64D11C0F6000140F27872CF
:101A6000C2F2000207F0C8F8786906F0A1FF044648
:101A7000786906F09DFF02463B8A1BB2798A09B25B
:101A80000091F869214606F071FB40F26073C2F2E2
:101A900000031A687B8A1BB2A3F11403104619468F
:101AA00004F0B9F903461A4640F28473C2F2000307
:101AB0001A605EE0B86945F62841C0F6010106F0FB
:101AC000A7FAB8694FF005014FF0050206F095FE40
:101AD000786807F065F80346184641F64D11C0F6E0
:101AE000000140F27872C2F2000207F085F840F27D
:101AF0007C73C2F200031B8819B240F27C73C2F2FD
:101B000000035B881AB240F27C73C2F200039B8828
:101B100018B240F27C73C2F200031B881BB2C31AD6
:101B200003F1010440F27C73C2F20003DB8818B2B7
:101B300040F27C73C2F200035B881BB2C31A03F14C
:101B400001030093F869234606F010FB78684FF014
:101B5000010104F005FF40F26073C2F200031A684D
:101B600040F28473C2F200031B681046194604F069
:101B700052F907F12407BD4690BD00BF80B588B07B
:101B800000AF78607B685B68BB617B681B681D2B5E
:101B900003D0262B00F0FA80E2E17B685B687B6172
:101BA000786945F6A061C0F6010104F069FF786923
:101BB0004FF00E0105F002FA786945F6E831C0F6FB
:101BC000010105F062F978694FF00E0104F01DFF84
:101BD000B8694FF4087106F0D2FF78614FF0000346
:101BE000FB6142E013F04EFF034646F2B702CBF230
:101BF0000B6282FB0312D2184FEAE2114FEAE37242
:101C00008A1A4FF0B40101FB02F29A1A91B240F223
:101C10006873C2F20003FA6923F8121040F2480315
:101C2000C2F20003FA6953F8223018464FF4FA71F1
:101C30004FF000024FF0000304F0B8F9014640F203
:101C40005073C2F20003FA6943F8221040F2507355
:101C5000C2F20003FA6953F822307869194604F099
:101C6000AFFDFB6903F10103FB61FB69022BB9D9ED
:101C700078694FF0190104F0F1FD78694FF0010126
:101C800004F0C0FD78694FF0010104F04AFE786964
:101C900041F6B501C0F6000104F0F5FDB8694FF456
:101CA000907106F06CFF7861786945F68051C0F656
:101CB000010105F091FDB86940F2211106F05FFFC6
:101CC0007861786945F68851C0F6010105F084FD18
:101CD00078694FF0010105F0A1FDB8694FF49371E7
:101CE00006F04DFF7861786945F69051C0F6010124
:101CF00005F072FD78694FF0010105F08FFDB869BC
:101D000040F2271106F03BFF7861786945F698515B
:101D1000C0F6010105F060FDB8694FF4987106F056
:101D20002EFF786178694FF000014FF00A0204F04D
:101D300021F878694FF0030103F046FF78694FF00E
:101D4000060104F034F8B86940F2311106F017FFCB
:101D5000786178694FF000014FF00A0204F00AF848
:101D600078694FF0030103F02FFF78694FF0060107
:101D700004F01DF8B8694FF4B87106F000FF7861FF
:101D800078694FF0010106F0A9F9ECE07B689B68E7
:101D9000184606F0ADFE38617B68DB68FB60FB68C7
:101DA000012B02D0052B09D0D9E03B69B3F5B87FF0
:101DB00003D1B869FFF706FE00BFD0E03B69A3F589
:101DC0009073112B00F2CA8001A252F823F000BFD9
:101DD000191E0008331E00085D1F00085D1F000863
:101DE0005D1F00085D1F0008E51E0008211F000898
:101DF0005D1F00085D1F00085D1F00085D1F0008D3
:101E00005D1F00085D1F00085D1F00085D1F0008C2
:101E10005D1E0008A31E000840F27073C2F20003AA
:101E20001B6883F0010240F27073C2F200031A6073
:101E300094E0B8694FF4087106F0A1FE7861B869C2
:101E400040F2211106F09BFE0346184605F003FD03
:101E500003467869194604F0D5FC7FE0B8694FF471
:101E6000087106F08CFE78617B689B68184603F069
:101E7000B1FF024613464FEA83039B184FEA430320
:101E8000BB60BB687869194604F0D3FC40F260730C
:101E9000C2F200031A68BB681046194603F0A8FF97
:101EA0005CE0B8694FF4087106F069FE78617B6800
:101EB0009B68184603F08EFF024613464FEA8303E1
:101EC0009B18BB60BB687869194604F0C7FC40F2F8
:101ED0005C73C2F200031A68BB681046194603F02F
:101EE00087FF3BE0B8694FF4087106F048FE78615F
:101EF000B8694FF4937106F042FE0346184605F0A8
:101F0000AAFC0346002B05D078694FF4FA7104F05F
:101F1000CCFC23E078694FF0000104F0C6FC1DE022
:101F2000B8694FF4087106F02AFE7861B86940F28A
:101F3000271106F024FE0346184605F08CFC0346E4
:101F4000002B05D078694FF4967104F0CCFC04E0C6
:101F500078694FF0000104F0C6FC00BF00BF02E04A
:101F6000786807F0A7FF07F12007BD4680BD00BFD6
:101F700080B584B002AF00F099FCFFF743FA4FF050
:101F80000000FFF7DBFA4FF00100FEF7D1FF40F24F
:101F90007473C2F200034FF00002C4F29C121A6084
:101FA0004FF000037B600DF035F80CF063FF4FF04D
:101FB000000006F03DFA47F6C120C0F6000005F02B
:101FC000FBFE47F22930C0F6000005F0F7FB4FF0AA
:101FD000040006F035FA4FF0000300934FF00003C1
:101FE000019345F63440C0F601004FF00B0141F675
:101FF0007D32C0F600024FF0000305F039F9386079
:1020000040F27073C2F200031B68002B0FD17B6893
:10201000002B05D138684FF4087106F0B0FD7860E8
:10202000FFF712FC4FF00100FFF7B2FA03E04FF0A8
:102030000100FFF759FA0BF09BFDE1E780B485B092
:1020400000AFF860B9607A604FF46053C4F20203E5
:10205000FA684FEA8211BA684FEA026211437A685D
:102060004FEA02720A43C3F8882007F11407BD46FD
:1020700080BC704780B483B000AF0346FB714FF063
:102080007003C4F24723FA791A6007F10C07BD46C2
:1020900080BC704780B489B000AF78604FF0000317
:1020A000BB614FF000037B614FF00003FB614FF019
:1020B00002033B614FF00003FB604FF00203BB6083
:1020C0004FF46053C4F202039B6803F00C03BB613E
:1020D000BB69042B0AD0082B0FD0002B60D17A6883
:1020E0004FF41053C0F2F403136060E07A684FF4C9
:1020F0009053C0F27A03136059E04FF46053C4F276
:1021000002035B6803F480034FEA9353FB604FF4D0
:102110006053C4F202035B6803F03F03BB60FB68DB
:10212000002B14D04FF49053C0F27A03BA68B3FB7B
:10213000F2F24FF46053C4F20203596847F6C073D9
:102140000B404FEA931303FB02F3FB6113E04FF4E0
:102150001053C0F2F403BA68B3FBF2F24FF46053C9
:10216000C4F20203596847F6C0730B404FEA931359
:1021700003FB02F3FB614FF46053C4F202035B689C
:1021800003F440334FEA134303F101034FEA4303DF
:102190003B61FA693B69B2FBF3F27B681A6006E0C7
:1021A0007A684FF41053C0F2F403136000BF4FF489
:1021B0006053C4F202039B6803F0F003BB61BB6988
:1021C0004FEA1313BB6140F25403C2F20003BA6931
:1021D0009B181B78DBB27B617B681A687B6922FAEB
:1021E00003F27B685A604FF46053C4F202039B68A9
:1021F00003F4E053BB61BB694FEA9323BB6140F238
:102200005403C2F20003BA699B181B78DBB27B61EE
:102210007B685A687B6922FA03F27B689A604FF404
:102220006053C4F202039B6803F46043BB61BB6963
:102230004FEA5333BB6140F25403C2F20003BA6960
:102240009B181B78DBB27B617B685A687B6922FA3A
:1022500003F27B68DA6007F12407BD4680BC704753
:1022600080B485B000AF78604FF00003FB604FF49E
:102270006053C4F20203D3F88C30FB60FB6823F494
:102280004033FB60FA687B681343FB604FF4605394
:10229000C4F20203FA68C3F88C2007F11407BD46A4
:1022A00080BC704780B483B000AF78600B46FB7091
:1022B000FB78002B0CD04FF46053C4F202034FF4B0
:1022C0006052C4F20202116B7A680A431A630DE08D
:1022D0004FF46053C4F202034FF46052C4F202029E
:1022E000116B7A686FEA02020A401A6307F10C0761
:1022F000BD4680BC704700BF80B483B000AF78603B
:102300000B46FB70FB78002B0CD04FF46053C4F2EB
:1023100002034FF46052C4F20202916B7A680A43DE
:102320009A630DE04FF46053C4F202034FF460521D
:10233000C4F20202916B7A686FEA02020A409A6361
:1023400007F10C07BD4680BC704700BF80B483B066
:1023500000AF78600B46FB70FB78002B0CD04FF47D
:102360006053C4F202034FF46052C4F20202116CD3
:102370007A680A431A640DE04FF46053C4F2020312
:102380004FF46052C4F20202116C7A686FEA0202E2
:102390000A401A6407F10C07BD4680BC704700BFB5
:1023A00080B483B000AF78600B46FB70FB78002BE5
:1023B0000CD04FF46053C4F202034FF46052C4F2E5
:1023C0000202516C7A680A435A640DE04FF460537C
:1023D000C4F202034FF46052C4F20202516C7A68F4
:1023E0006FEA02020A405A6407F10C07BD4680BC3E
:1023F000704700BF80B483B000AF78600B46FB70BD
:10240000FB78002B0CD04FF46053C4F202034FF45E
:102410006052C4F20202116A7A680A431A620DE03D
:102420004FF46053C4F202034FF46052C4F202024C
:10243000116A7A686FEA02020A401A6207F10C0711
:10244000BD4680BC704700BF80B483B000AF7860E9
:102450000B46FB70FB78002B0CD04FF46053C4F29A
:1024600002034FF46052C4F20202516A7A680A43CE
:102470005A620DE04FF46053C4F202034FF460520D
:10248000C4F20202516A7A686FEA02020A405A6292
:1024900007F10C07BD4680BC704700BF80B487B011
:1024A00000AF0346FB714FF00003FB604FF00003E9
:1024B0007B614FF00003FB74FB794FEA5313DBB2EF
:1024C000FB60FB68012B06D14FF46053C4F202039A
:1024D0001B687B610FE0FB68022B06D14FF4605351
:1024E000C4F202031B6F7B6105E04FF46053C4F23A
:1024F00002035B6F7B61FB7903F01F03FB60FB68EA
:102500007A6922FA03F303F00103002B03D04FF0A2
:102510000103FB7402E04FF00003FB74FB7C1846E0
:1025200007F11C07BD4680BC704700BF80B485B072
:1025300000AF786039604FF00003FB604FF000039C
:10254000FB727B685B68FB60FB6823F0407323F4DD
:102550008073FB603B681B794FEA03223B681B6872
:102560001343FA681343FB607B68FA685A607B6820
:102570009B68FB60FA684FF2FD73CCF2FF031340D7
:10258000FB603B681A693B68DB681A433B689B68E1
:102590001A433B685B794FEA43031343FA681343DA
:1025A000FB607B68FA689A607B68DB6AFB60FB68AB
:1025B00023F47003FB603B681B7D03F1FF33DAB249
:1025C000FB7A1343FB72FB7A4FEA0353FA68134317
:1025D000FB607B68FA68DA6207F11407BD4680BCCD
:1025E000704700BF80B485B000AF78604FF0000343
:1025F000FB604FF40C53C4F201035B68FB60FA68A4
:1026000043F2E003CFF6FC731340FB607B681A686B
:102610007B685B681A437B689B681A437B68DB684E
:102620001343FA681343FB604FF40C53C4F20103E5
:10263000FA685A6007F11407BD4680BC704700BFB6
:1026400080B483B000AF78600B46FB70FB78002B42
:1026500006D07B689B6843F001027B689A6005E0C6
:102660007B689B6823F001027B689A6007F10C0786
:10267000BD4680BC704700BF80B485B000AF7860B5
:10268000F970BA707B704FF00003FB604FF00003ED
:10269000BB60FB78092B27D97B68DB68FB60FA7885
:1026A00013464FEA43039B18A3F11E034FF00702A2
:1026B00002FA03F3BB60BB686FEA0303FA681340D6
:1026C000FB607978FA7813464FEA43039B18A3F12D
:1026D0001E0301FA03F3BB60FA68BB681343FB6097
:1026E0007B68FA68DA6022E07B681B69FB60FA7835
:1026F00013464FEA43039B184FF0070202FA03F315
:10270000BB60BB686FEA0303FA681340FB6079782B
:10271000FA7813464FEA43039B1801FA03F3BB60B0
:10272000FA68BB681343FB607B68FA681A61BB7880
:10273000062B27D87B685B6BFB60BB7803F1FF320D
:1027400013464FEA83039B184FF01F0202FA03F36C
:10275000BB60BB686FEA0303FA681340FB60F9785B
:10276000BB7803F1FF3213464FEA83039B1801FA4B
:1027700003F3BB60FA68BB681343FB607B68FA68CD
:102780005A6351E0BB780C2B27D87B681B6BFB602E
:10279000BA7813464FEA83039B18A3F123034FF043
:1027A0001F0202FA03F3BB60BB686FEA0303FA6817
:1027B0001340FB60F978BA7813464FEA83039B18FD
:1027C000A3F1230301FA03F3BB60FA68BB68134368
:1027D000FB607B68FA681A6326E07B68DB6AFB6053
:1027E000BA7813464FEA83039B18A3F141034FF0D5
:1027F0001F0202FA03F3BB60BB686FEA0303FA68C7
:102800001340FB60F978BA7813464FEA83039B18AC
:10281000A3F1410301FA03F3BB60FA68BB681343F9
:10282000FB607B68FA68DA6207F11407BD4680BC7A
:10283000704700BF80B483B000AF78607B689B684E
:1028400043F080427B689A6007F10C07BD4680BC6C
:10285000704700BF80B483B000AF78607B68DB6CEA
:102860009BB2184607F10C07BD4680BC704700BFFD
:1028700080B485B000AF78600B46FB704FF000036A
:10288000FB737B681A68FB781340002B03D04FF072
:102890000103FB7302E04FF00003FB73FB7B184660
:1028A00007F11407BD4680BC704700BF80B500AF7C
:1028B00000F046F800F096F880BD00BF80B584B007
:1028C00000AF0346FB714FF00003FB81F97940F242
:1028D0006402C2F200020B464FEA83035B184FEA20
:1028E0008303D31803F110031B784FF40050C4F294
:1028F000010019464FF001024FF00003FFF7BCFE44
:102900004FF40050C4F20100FFF794FF00BF4FF4F2
:102910000050C4F201004FF00201FFF7A9FF034687
:10292000002BF4D04FF40050C4F20100FFF792FFE7
:102930000346FB81FB89184607F11007BD4680BDA1
:1029400080B584B000AF4FF00003FB7342E0F97B29
:1029500040F26402C2F200020B464FEA83035B18A6
:102960004FEA8303D31803F10C031B6818464FF09A
:102970000101FFF797FCF97B40F26402C2F200020A
:102980000B464FEA83035B184FEA8303D31803F126
:1029900008031B887B604FF003033B724FF000037A
:1029A000FB72F97B40F26402C2F200020B464FEA6E
:1029B00083035B184FEA8303D31803F104031A68F7
:1029C00007F104031046194600F014FDFB7B03F1E8
:1029D0000103FB73FB7B012BB9D907F11007BD463F
:1029E00080BD00BF80B58AB000AF4FF480704FF05B
:1029F0000101FFF7D5FC4FF00003BB614FF48033BA
:102A0000FB614FF000033B624FF000037B6207F174
:102A100018031846FFF7E6FD4FF000033B604FF048
:102A200000033B714FF000037B714FF00003BB606C
:102A30004FF000033B614FF001033B753B464FF401
:102A40000050C4F201001946FFF770FD4FF400502A
:102A5000C4F201004FF00101FFF7F2FD07F1280772
:102A6000BD4680BD80B400AFBD4680BC704700BF8E
:102A700080B400AFFEE700BF80B400AFFEE700BF48
:102A800080B400AFFEE700BF80B400AFFEE700BF38
:102A900080B400AFBD4680BC704700BF80B400AFBB
:102AA000BD4680BC704700BF80B400AFBD4680BC4F
:102AB000704700BF80B500AF49F69C23C2F2010306
:102AC0001B6803F1010249F69C23C2F201031A605C
:102AD00040F28873C2F200031B6803F1010240F266
:102AE0008873C2F200031A6040F28873C2F20003D6
:102AF0001B681E2B08D940F28873C2F200034FF006
:102B000000021A60FEF718FE80BD00BF80B500AF5E
:102B100002F018FA80BD00BF80B500AF02F006FADF
:102B200080BD00BF80B582B000AF4FF00003FB71E5
:102B300000F044F84FF0000000F09AFE00F01CF99D
:102B400049F68423C2F201034FF000021A70FDF728
:102B50002DFB00F079F84FF00103FB7140F28C730C
:102B6000C2F200034FF000021A8040F28E73C2F2EC
:102B700000034FF000021A8040F29073C2F200038B
:102B80004FF000021A6049F69423C2F201034FF09D
:102B900050421A6049F68023C2F201034FF000024E
:102BA0001A6049F68823C2F201034FF000021A604E
:102BB000FB79184607F10807BD4680BD80B582B095
:102BC00000AF4FF008004FF00101FFF76BFB4FF42F
:102BD00000533B604FF002037B714FF001033B71E8
:102BE0004FF00003BB714FF00003FB713B464FF405
:102BF0004060C4F20200194600F0FCFB4FF00400F4
:102C00004FF00101FFF74EFB4FF004033B604FF024
:102C100002037B714FF001033B714FF00003BB7166
:102C20004FF00003FB713B464FF40060C4F202001A
:102C3000194600F0DFFB4FF0010000F065F807F1E6
:102C40000807BD4680BD00BF80B590B000AF4FF013
:102C500080604FF00101FFF7A3FB4FF400004FF03D
:102C60000101FFF71FFB00F077FA4FF000037B60D4
:102C70004FF00003BB604FF00003FB604FF0000318
:102C80003B614FF000037B634FF00003BB634FF0E9
:102C90000003FB634FF0C0004FF007014FF0040248
:102CA000FFF7CCF94FF40030FFF7DAFA4FF00100EC
:102CB000FFF7E0F900BF4FF03D00FFF7EFFB0346E1
:102CC000002BF8D04FF009037B614FF00103BB618B
:102CD0004FF01D03FB614FF003033B6240F20D1305
:102CE0007B6240F24313BB6240F21713FB6240F277
:102CF00047133B6307F104031846FEF729F907F170
:102D00004007BD4680BD00BF80B483B000AF03461E
:102D1000FB71FB79002B07D14FF40063C4F202036F
:102D20004FF004025A8306E04FF40063C4F202033A
:102D30004FF004021A8307F10C07BD4680BC7047B0
:102D400080B483B000AF0346FB71FB79002B07D141
:102D50004FF44063C4F202034FF400525A8306E07A
:102D60004FF44063C4F202034FF400521A8307F198
:102D70000C07BD4680BC704780B500AF4FF0CA005D
:102D800000F0AEF94FF0C30000F0C8F94FF00800B2
:102D900000F0C4F94FF0500000F0C0F94FF0CF0040
:102DA00000F09EF94FF0000000F0B8F94FF0C100BC
:102DB00000F0B4F94FF0300000F0B0F94FF0ED0042
:102DC00000F08EF94FF0640000F0A8F94FF0030016
:102DD00000F0A4F94FF0120000F0A0F94FF08100CC
:102DE00000F09CF94FF0E80000F07AF94FF0850010
:102DF00000F094F94FF0000000F090F94FF07800E7
:102E000000F08CF94FF0CB0000F06AF94FF0390078
:102E100000F084F94FF02C0000F080F94FF0000032
:102E200000F07CF94FF0340000F078F94FF0020028
:102E300000F074F94FF0F70000F052F94FF0200065
:102E400000F06CF94FF0EA0000F04AF94FF0000092
:102E500000F064F94FF0000000F060F94FF0B100AD
:102E600000F03EF94FF0000000F058F94FF01B0061
:102E700000F054F94FF0B60000F032F94FF00A00BC
:102E800000F04CF94FF0A20000F048F94FF0C000FC
:102E900000F026F94FF0100000F040F94FF0C100AB
:102EA00000F01EF94FF0100000F038F94FF0C500A7
:102EB00000F016F94FF0450000F030F94FF0150022
:102EC00000F02CF94FF0C70000F00AF94FF0900025
:102ED00000F024F94FF0360000F002F94FF0C8007E
:102EE00000F01CF94FF0F20000F0FAF84FF000008B
:102EF00000F014F94FF0B00000F0F2F84FF0C2000B
:102F000000F00CF94FF0B60000F0EAF84FF00A00BC
:102F100000F004F94FF0A70000F000F94FF027008F
:102F200000F0FCF84FF0040000F0F8F84FF02A0031
:102F300000F0D6F84FF0000000F0F0F84FF000007D
:102F400000F0ECF84FF0000000F0E8F84FF0EF0070
:102F500000F0E4F84FF02B0000F0C2F84FF0000052
:102F600000F0DCF84FF0000000F0D8F84FF001005E
:102F700000F0D4F84FF03F0000F0D0F84FF0F6002A
:102F800000F0AEF84FF0010000F0C8F84FF000007C
:102F900000F0C4F84FF0060000F0C0F84FF02C002D
:102FA00000F09EF84FF0C80000F00EFA4FF0260037
:102FB00000F096F84FF0010000F0B0F84FF0E0009C
:102FC00000F08EF84FF00F0000F0A8F84FF0290045
:102FD00000F0A4F84FF0240000F0A0F84FF00C002F
:102FE00000F09CF84FF00E0000F098F84FF0090048
:102FF00000F094F84FF04E0000F090F84FF0780099
:1030000000F08CF84FF03C0000F088F84FF0090019
:1030100000F084F84FF0130000F080F84FF0050046
:1030200000F07CF84FF0170000F078F84FF0110036
:1030300000F074F84FF0000000F070F84FF0E1007D
:1030400000F04EF84FF0000000F068F84FF0160066
:1030500000F064F84FF01B0000F060F84FF004003F
:1030600000F05CF84FF0110000F058F84FF0070046
:1030700000F054F84FF0310000F050F84FF03300FA
:1030800000F04CF84FF0420000F048F84FF0050017
:1030900000F044F84FF00C0000F040F84FF00A0048
:1030A00000F03CF84FF0280000F038F84FF02F0007
:1030B00000F034F84FF00F0000F030F84FF011003E
:1030C00000F00EF84FF0C80000F07EF94FF0290034
:1030D00000F006F84FF02C0000F002F880BD00BFB1
:1030E00080B582B000AF0346FB714FF00000FFF7E0
:1030F00027FE4FF00000FFF707FEFB79184600F0AF
:10310000EFFC4FF00A0000F05FF94FF00100FFF70D
:10311000FBFD07F10807BD4680BD00BF80B582B04A
:1031200000AF0346FB714FF00100FFF709FE4FF0BF
:103130000000FFF7E9FDFB79184600F0D1FC4FF0E5
:103140000A0000F041F94FF00100FFF7DDFD07F143
:103150000807BD4680BD00BF80B582B000AF4FF00C
:103160006F004FF00101FFF79DF84FF00000C4F22F
:1031700002004FF003014FF00E0200F0DDF94FF0B6
:103180000000C4F202004FF004014FF00E0200F004
:10319000D3F94FF00000C4F202004FF006014FF0E7
:1031A0000E0200F0C9F94FF00000C4F202004FF027
:1031B0000B014FF00E0200F0BFF94FF00000C4F217
:1031C00002004FF00C014FF00E0200F0B5F941F68D
:1031D00058033B604FF002037B714FF002033B71D9
:1031E0004FF00003BB714FF00003FB713B464FF003
:1031F0000000C4F20200194600F0FCF84FF48060B1
:10320000C4F202004FF000014FF0090200F094F9FF
:103210004FF48060C4F202004FF001014FF0090248
:1032200000F08AF94FF48060C4F202004FF0080108
:103230004FF00E0200F080F94FF48060C4F20200FB
:103240004FF009014FF00E0200F076F94FF4806064
:10325000C4F202004FF00A014FF00E0200F06CF9C8
:103260004FF48060C4F202004FF00B014FF00E02E9
:1032700000F062F940F603733B603B464FF4806018
:10328000C4F20200194600F0B5F84FF40060C4F231
:1032900002004FF006014FF00E0200F04DF94FF41E
:1032A0000060C4F202004FF007014FF00E0200F080
:1032B00043F94FF40060C4F202004FF00A014FF0EE
:1032C0000E0200F039F94FF498633B603B464FF42F
:1032D0000060C4F20200194600F08CF84FF4406020
:1032E000C4F202004FF003014FF00E0200F024F987
:1032F0004FF44060C4F202004FF006014FF00E029E
:1033000000F01AF94FF048033B603B464FF4406031
:10331000C4F20200194600F06DF84FF4A050C4F258
:1033200002004FF00A014FF00E0200F005F94FF4D1
:1033300080633B603B464FF4A050C4F20200194644
:1033400000F058F84FF4C050C4F202004FF00601EC
:103350004FF00E0200F0F0F84FF4C050C4F202003B
:103360004FF007014FF00E0200F0E6F84FF4C050A6
:10337000C4F202004FF00A014FF0090200F0DCF83D
:103380004FF4C050C4F202004FF00B014FF00E0298
:1033900000F0D2F84FF4C050C4F202004FF00C011C
:1033A0004FF0090200F0C8F84FF4E6533B603B468B
:1033B0004FF4C050C4F20200194600F01BF807F1A8
:1033C0000807BD4680BD00BF80B485B000AF7860FF
:1033D0004FF00003FB607B68FB6003E0FB6803F1D8
:1033E000FF33FB60FB68002BF8D107F11407BD46E3
:1033F00080BC704780B487B000AF786039604FF010
:1034000000037B614FF000033B614FF00003FB6062
:103410004FF000037B6186E07B694FF0010202FA06
:1034200003F33B613B681A683B691340FB60FA6831
:103430003B699A4273D17B681A687B694FEA430300
:103440004FF0030101FA03F36FEA03031A407B68AC
:103450001A607B681A683B681B7919467B694FEADA
:10346000430301FA03F31A437B681A603B681B7934
:10347000012B03D03B681B79022B34D17B689A68FF
:103480007B694FEA43034FF0030101FA03F36FEA4C
:1034900003031A407B689A607B689A683B685B7993
:1034A00019467B694FEA430301FA03F31A437B6829
:1034B0009A607B685A687B699BB24FF0010101FA00
:1034C00003F36FEA03031A407B685A607B685A680B
:1034D0003B689B7919467B699BB201FA03F39BB267
:1034E0001A437B685A607B68DA687B699BB24FEA53
:1034F00043034FF0030101FA03F36FEA03031A4099
:103500007B68DA607B68DA683B68DB7919467B693F
:103510004FEA430301FA03F31A437B68DA607B69DD
:1035200003F101037B617B690F2B7FF675AF07F118
:103530001C07BD4680BC704780B485B000AF786082
:1035400013460A467A807B704FF00003FB604FF011
:103550000003BB607A787B8803F007034FEA83039C
:1035600002FA03F3FB607B884FEAD3039BB21A464F
:103570007B884FEAD3039BB219467B6801F10801AF
:1035800053F821107B8803F007034FEA83034FF0C1
:103590000F0000FA03F36FEA030319407B6802F19E
:1035A000080243F822107B884FEAD3039BB21A46E5
:1035B0007B6802F1080253F82220FB681343BB60CA
:1035C0007B884FEAD3039BB21A467B6802F108025C
:1035D000B96843F8221007F11407BD4680BC704754
:1035E00080B500AF4FF46D43CEF200034FF46D424F
:1035F000CEF20002D2F8882042F47002C3F888208C
:103600004FF46053C4F202034FF46052C4F202025A
:10361000126842F001021A604FF46053C4F20203D0
:103620004FF000029A604FF46053C4F202034FF46B
:103630006052C4F20202126822F0847222F48032D4
:103640001A604FF46053C4F2020343F21002C2F254
:1036500000425A604FF46053C4F202034FF46052C8
:10366000C4F20202126822F480221A604FF46053FE
:10367000C4F202034FF00002DA6000F009F84FF4E0
:103680006D43CEF200034FF000629A6080BD00BF30
:1036900080B483B000AF4FF000037B604FF00003B5
:1036A0003B604FF46053C4F202034FF46052C4F223
:1036B0000202126842F480321A604FF46053C4F27E
:1036C00002031B6803F400333B607B6803F10103D2
:1036D0007B603B68002B03D17B68B3F5A04FECD136
:1036E0004FF46053C4F202031B6803F40033002B51
:1036F00003D04FF001033B6002E04FF000033B605A
:103700003B68012B40F0AE804FF46053C4F20203DB
:103710004FF46052C4F20202126C42F080521A64FA
:103720004FF4E043C4F200034FF4E042C4F200025D
:10373000126842F440421A604FF46053C4F202032C
:103740004FF46052C4F2020292689A604FF46053E0
:10375000C4F202034FF46052C4F20202926842F4CF
:1037600000429A604FF46053C4F202034FF4605277
:10377000C4F20202926842F4A0529A604FF460537D
:10378000C4F2020345F60822C0F240725A604FF4B8
:103790006053C4F202034FF46052C4F20202126892
:1037A00042F080721A6000BF4FF46053C4F202030B
:1037B0001B6803F00073002BF6D04FF4E043C4F213
:1037C00000034FF4E042C4F20002126842F4803277
:1037D0001A6000BF4FF4E043C4F200035B6803F4D7
:1037E0008033002BF6D04FF4E043C4F200034FF4D3
:1037F000E042C4F20002126842F400321A6000BFD4
:103800004FF4E043C4F200035B6803F40033002B81
:10381000F6D04FF47053C4F2020340F205721A60FE
:103820004FF46053C4F202034FF46052C4F2020238
:10383000926822F003029A604FF46053C4F20203CC
:103840004FF46052C4F20202926842F002029A609F
:1038500000BF4FF46053C4F202039B6803F00C03F3
:10386000082BF6D107F10C07BD4680BC704700BF9E
:1038700080B58AB000AF0346FB714FF0000387F8B4
:10388000273040F29473C2F200031B78002B0ED055
:1038900040F29573C2F200031B78FA799A4203D181
:1038A0004FF0010387F8273097F8273013E14FF4E2
:1038B00080104FF00101FEF773FD40F28C03C2F25D
:1038C00000039B6818464FF00101FEF7EBFC40F245
:1038D0008C03C2F200039B6918464FF00101FEF70A
:1038E000E1FC40F28C03C2F200039B6A18464FF0E1
:1038F0000101FEF7D7FC40F28C03C2F200031A6804
:1039000040F28C03C2F200031B7B104619464FF0B5
:103910000502FFF711FE40F28C03C2F200031A69A0
:1039200040F28C03C2F200031B7F104619464FF091
:103930000502FFF701FE40F28C03C2F200031A6A8F
:1039400040F28C03C2F2000393F82C301046194663
:103950004FF00502FFF7F0FD4FF0020387F820302B
:103960004FF0020387F821304FF0000387F8223030
:103970004FF0000387F8233040F28C03C2F20003BB
:103980009B88FB6140F28C03C2F200031A6807F1C6
:103990001C0310461946FFF72DFD40F28C03C2F2BE
:1039A00000039B8AFB6140F28C03C2F200031A6998
:1039B00007F11C0310461946FFF71CFD40F28C036B
:1039C000C2F200039B8CFB6140F28C03C2F2000345
:1039D0001A6A07F11C0310461946FFF70BFD4FF456
:1039E000A040C4F2010000F011FA4FF000033B8147
:1039F0004FF482737B814FF00003BB81FB79002B76
:103A000002D0FB79042B06D14FF00003FB814FF06D
:103A100000033B821FE0FB79012B02D0FB79052BD1
:103A200006D14FF00003FB814FF001033B8212E00F
:103A3000FB79022B02D0FB79062B06D14FF0020353
:103A4000FB814FF000033B8205E04FF00203FB8156
:103A50004FF001033B824FF400737B824FF0180359
:103A6000BB82FB79002B08D0FB79012B05D0FB79B9
:103A7000022B02D0FB79032B03D14FF00003FB8212
:103A800002E04FF08003FB824FF007033B8307F116
:103A900008034FF4A040C4F20100194600F036FAC2
:103AA0004FF4A040C4F201004FF0010100F072FA9F
:103AB00040F29473C2F200034FF001021A7040F218
:103AC0009573C2F20003FA791A704FF0010387F878
:103AD000273097F82730184607F12807BD4680BDE4
:103AE00080B584B000AF0346FB714FF00003FB7359
:103AF00000BF4FF4A040C4F201004FF0020100F0FB
:103B000085FA0346002BF4D0FB799BB24FF4A0401A
:103B1000C4F20100194600F06BFA00BF4FF4A04058
:103B2000C4F201004FF0010100F070FA0346002BCF
:103B3000F4D04FF4A040C4F2010000F04BFA034669
:103B4000FB73FB7B184607F11007BD4680BD00BF25
:103B500080B487B000AF78604FF000037B614FF016
:103B600000033B614FF00003FB604FF00003BB60BC
:103B70007B685A687B689B681A437B68DB681A43DA
:103B80007B681B691A437B685B691A437B689B6986
:103B90001A437B68DB691A437B681B6A1A437B689C
:103BA0005B6A13437B617B681B68002B09D14FF470
:103BB000A073CAF200037A681268796943F8221088
:103BC00017E07B68DA697B681B6A1A437B685B6A6B
:103BD0001343FB604FF4A073CAF20003FA681A6043
:103BE0004FF4A073CAF200037A681268796943F847
:103BF00022107B681B68002B41D17B689B6A1B6885
:103C000003F1FF327B689B6A5B6803F1FF334FEA85
:103C100003131A437B689B6A9B6803F1FF334FEAE7
:103C200003231A437B689B6ADB6803F1FF334FEA87
:103C300003331A437B689B6A1B6903F1FF334FEA26
:103C400003431A437B689B6A5B6903F1FF334FEAC6
:103C500003531A437B689B6A9B6903F1FF334FEA66
:103C6000036313433B614FF4A073CAF200037A6805
:103C7000126802F10202396943F822103EE07B68C3
:103C80009B6A1B6803F1FF327B689B6A5B6803F1E8
:103C9000FF334FEA03131A437B689B6A9B6803F167
:103CA000FF334FEA03231A437B689B6A1B6903F1C6
:103CB000FF334FEA034313433B617B689B6ADB6836
:103CC00003F1FF334FEA03327B689B6A5B6903F1C0
:103CD000FF334FEA03531343BB604FF4A073CAF2A0
:103CE0000003BA689A604FF4A073CAF200037A68BE
:103CF000126802F10202396943F8221007F11C0729
:103D0000BD4680BC704700BF80B485B000AF78600E
:103D10004FF00003FB607B681A687B685B681A439E
:103D20007B689B6803F1FF334FEA43131A437B68B8
:103D3000DB684FEA43231343FB604FF4A073CAF2DE
:103D40000003FA681A6107F11407BD4680BC70478A
:103D500080B483B000AF78604FF4A073CAF2000360
:103D60004FF4A072CAF2000251697A684FEA420227
:103D70000A435A6107F10C07BD4680BC704700BF7B
:103D800080B485B000AF786039604FF00003FB73FA
:103D90004FF00003BB607B68102B06D14FF060032F
:103DA000CAF200035B68BB601BE07B68B3F5807FF1
:103DB00006D14FF08003CAF200035B68BB6010E0DD
:103DC0007B68B3F5805F06D14FF0A003CAF2000311
:103DD0005B68BB6005E04FF4A073CAF200039B6907
:103DE000BB60BA683B681A403B689A4203D04FF008
:103DF0000003FB7302E04FF00103FB73FB7B1846EB
:103E000007F11407BD4680BC704700BF80B582B083
:103E100000AF78607A684FF44053C4F201039A42CD
:103E20000CD14FF480504FF00101FEF70DFB4FF421
:103E300080504FF00001FEF707FB62E07A684FF414
:103E40006053C4F200039A420CD14FF480404FF00B
:103E50000101FEF7CFFA4FF480404FF00001FEF76A
:103E6000C9FA4EE07A684FF47053C4F200039A42E4
:103E70000CD14FF400404FF00101FEF7BBFA4FF4B4
:103E800000404FF00001FEF7B5FA3AE07A684FF4CF
:103E90005053C4F201039A420CD14FF400504FF03A
:103EA0000101FEF7D1FA4FF400504FF00001FEF788
:103EB000CBFA26E07A684FF4A043C4F201039A4299
:103EC0000CD14FF480104FF00101FEF7BDFA4FF412
:103ED00080104FF00001FEF7B7FA12E07A684FF455
:103EE000A843C4F201039A420BD14FF400104FF0E3
:103EF0000101FEF7A9FA4FF400104FF00001FEF7A0
:103F0000A3FA07F10807BD4680BD00BF80B485B0A5
:103F100000AF786039604FF00003FB817B681B883D
:103F2000FB81FB8903F44153FB813B681A883B68A2
:103F30005B8813439AB23B689B8813439AB23B68F1
:103F4000DB8813439AB23B681B8913439AB23B68E0
:103F50005B8913439AB23B689B8913439AB23B68CF
:103F6000DB8913439AB2FB891343FB817B68FA898F
:103F70001A807B689B8B9BB223F400639AB27B68A8
:103F80009A833B681A8A7B681A8207F11407BD4638
:103F900080BC704780B483B000AF78600B46FB7084
:103FA000FB78002B08D07B681B889BB243F0400352
:103FB0009AB27B681A8007E07B681B889BB223F06B
:103FC00040039AB27B681A8007F10C07BD4680BC9B
:103FD000704700BF80B483B000AF78607B689B8976
:103FE0009BB2184607F10C07BD4680BC704700BF66
:103FF00080B483B000AF78600B467B807B687A88A2
:104000009A8107F10C07BD4680BC704780B485B02B
:1040100000AF78600B467B804FF00003FB737B683A
:104020001B899AB27B8813409BB2002B03D04FF0C0
:104030000103FB7302E04FF00003FB73FB7B1846A8
:1040400007F11407BD4680BC704700BF80B582B041
:1040500000AF78607A684FF4A843C4F200039A4234
:104060000CD14FF400104FF00101FEF7C3F94FF4EB
:1040700000104FF00001FEF7BDF926E07A684FF41A
:10408000B043C4F200039A420CD14FF480004FF0C9
:104090000101FEF7AFF94FF480004FF00001FEF789
:1040A000A9F912E07A684FF4B843C4F200039A42C7
:1040B0000BD14FF400004FF00101FEF79BF94FF4D4
:1040C00000004FF00001FEF795F907F10807BD4623
:1040D00080BD00BF80B58AB000AF786039604FF016
:1040E0000003FB844FF000037B844FF00403BB8488
:1040F0004FF49053C0F27A03FB617B689B88FB848A
:10410000FB8C23F03F03FB8407F10C031846FDF7FB
:10411000C1FF7B69FB61FA694DF68363C4F21B330F
:10412000A3FB02134FEA93437B84FA8C7B8C1343EB
:10413000FB847B68FA8C9A807B681B889BB223F097
:1041400001039AB27B681A804FF00003FB843B683E
:104150001A6848F2A063C0F201039A4218D83B687B
:104160001B684FEA4303FA69B2FBF3F3BB84BB8CD1
:10417000032B02D84FF00403BB84FA8CBB8C13438F
:10418000FB847B8C03F101039AB27B681A844BE0B9
:104190003B68DA884BF6FF739A420AD13B681A688B
:1041A00013464FEA43039B18FA69B2FBF3F3BB844F
:1041B00010E03B681A6813464FEA83039B184FEAE6
:1041C00083029B18FA69B2FBF3F3BB84BB8C43F404
:1041D0008043BB84BB8C4FEA03534FEA1353002B3D
:1041E00003D1BB8C43F00103BB84BA8CFB8C13431B
:1041F0009BB26FEA43436FEA5343FB847B8C4FF4DB
:10420000967202FB03F244F6D353C1F2620383FBBE
:1042100002134FEAA3114FEAE273CB1A9BB203F1E8
:1042200001039AB27B681A847B68FA8C9A837B6854
:104230001B889BB243F001039AB27B681A807B68AB
:104240001B88FB84FB8C23F4816323F00203FB8433
:104250003B689A883B685B8913439AB2FB8C134393
:10426000FB847B68FA8C1A803B689A893B681B89BF
:1042700013439AB27B681A8107F12807BD4680BDB7
:1042800080B483B000AF78600B46FB70FB78002BE6
:1042900008D07B681B889BB243F001039AB27B680D
:1042A0001A8007E07B681B889BB223F001039AB257
:1042B0007B681A8007F10C07BD4680BC704700BFC1
:1042C00080B483B000AF78600B46FB70FB78002BA6
:1042D00008D07B681B889BB243F480739AB27B68DA
:1042E0001A8007E07B681B889BB223F480739AB224
:1042F0007B681A8007F10C07BD4680BC704700BF81
:1043000080B483B000AF78600B46FB70FB78002B65
:1043100008D07B681B889BB243F400739AB27B6819
:104320001A8007E07B681B889BB223F400739AB263
:104330007B681A8007F10C07BD4680BC704700BF40
:1043400080B483B000AF786013460A46FA70BB7041
:10435000BB78002B04D0FB7843F00103FB7003E033
:10436000FB7823F00103FB70FB789AB27B681A821A
:1043700007F10C07BD4680BC704700BF80B483B016
:1043800000AF78600B46FB70FB78002B08D07B6891
:104390001B889BB243F480639AB27B681A8007E063
:1043A0007B681B889BB223F480639AB27B681A8077
:1043B00007F10C07BD4680BC704700BF80B483B0D6
:1043C00000AF78600B46FB70FB78002B0AD07B684F
:1043D0001B889BB26FEA43436FEA53439AB27B68F0
:1043E0001A8009E07B681B889BB24FEA43434FEA7F
:1043F00053439AB27B681A8007F10C07BD4680BC14
:10440000704700BF80B483B000AF78600B46FB708C
:10441000FB789AB27B681A8207F10C07BD4680BC14
:10442000704700BF80B483B000AF78607B681B8AA0
:104430009BB2DBB2184607F10C07BD4680BC704743
:1044400080B487B000AF786039604FF00003FB752F
:104450004FF000033B614FF00003FB607B68FB60A3
:104460003B684FEA13733B613B6823F07F433B603B
:104470003B69002B04D0FB6803F11403FB6007E0E9
:104480003B684FEA13433B60FB6803F11803FB6092
:10449000FB681A683B681340002B03D04FF0010300
:1044A000FB7502E04FF00003FB75FB7D184607F13A
:1044B0001C07BD4680BC704780B483B000AF034684
:1044C000FB714FF46143CEF2000397F907204FEAE6
:1044D0005212F97901F01F014FF0010000FA01F1C9
:1044E00043F8221007F10C07BD4680BC704700BF9F
:1044F00080B483B000AF03463960FB7197F9073091
:10450000002B10DA4FF46D43CEF20003FA7902F07B
:104510000F02A2F104013A68D2B24FEA0212D2B2FB
:104520005B181A760DE04FF46143CEF2000397F961
:1045300007103A68D2B24FEA0212D2B25B1883F87F
:10454000002307F10C07BD4680BC704780B485B0DE
:1045500000AF78607B68002B02D04FF0000358E07A
:1045600040F2C403C2F200037A6853F82230FB60C1
:10457000FA6847F65463C0F601039A4202D14FF03D
:10458000000346E0FA6847F62463C0F601039A4246
:1045900002D14FF001033CE0FA6847F66C63C0F6C5
:1045A00001039A4202D14FF0020332E0FA6847F663
:1045B0009C63C0F601039A4202D14FF0030328E046
:1045C000FA6847F68463C0F601039A4202D14FF0BD
:1045D00004031EE0FA6847F6CC63C0F601039A4272
:1045E00002D14FF0050314E0FA6847F6E463C0F621
:1045F00001039A4202D14FF006030AE0FA6847F637
:10460000B463C0F601039A4202D14FF0070300E001
:10461000FEE7184607F11407BD4680BC704700BF8F
:1046200080B584B000AF78603960786807F0B8FD75
:10463000F860FB683A6802FB03F303F10703002B01
:1046400001DA03F107034FEAE303BB60BB681846D6
:1046500007F11007BD4680BD80B483B000AF78601D
:1046600039603B68002B06D07B681B6843F0020270
:104670007B681A6005E07B681B6823F002027B6898
:104680001A604FF4D043C4F201034FF002025A62A1
:1046900007F10C07BD4680BC704700BF80B483B0F3
:1046A00000AF786039603B68002B06D07B681B68E0
:1046B00043F010027B681A6005E07B681B6823F0FA
:1046C00010027B681A604FF4D043C4F201034FF02C
:1046D00002025A6207F10C07BD4680BC704700BF5A
:1046E00080B58AB000AFF860B9607A60F86807F00A
:1046F0004BFD7862F86807F04AFD3862BB6803F149
:104700001E03FB61BB6803F11D027B6AD318BB610A
:104710007B6803F104037B617B6803F103023B6A5E
:10472000D3183B6140F2BC03C2F20003FA6853F8AD
:10473000222040F2BC03C2F20003F96853F8213092
:104740005B6803F47043536040F2BC03C2F20003A1
:10475000FA6853F82230BA694FEA0241FA690A430B
:104760005A6040F2BC03C2F20003FA6853F82220F8
:1047700040F2BC03C2F20003F96853F821309B6891
:1047800003F47043936040F2BC03C2F20003FA6882
:1047900053F822303A694FEA02417A690A439A6033
:1047A0004FF00200FCF7EEFC07F12807BD4680BD84
:1047B00080B582B000AF7860396040F2BC03C2F2CD
:1047C00000037A6853F8222040F2BC03C2F20003CF
:1047D000796853F821305B6923F0FF03536140F29D
:1047E000BC03C2F200037A6853F822303A68C2F17F
:1047F000FF025A614FF00100FCF7C4FC07F1080703
:10480000BD4680BD80B588B000AFF860B9607A6001
:10481000BB68DBB24FEA0343FB61BB6803F47F4331
:10482000BB61BB684FEA1343DBB27B617B684FEA35
:1048300003633B6140F2BC03C2F20003FA6853F821
:1048400022301B6C40F2BC03C2F20003FA6853F83A
:1048500022304FF000021A6440F2BC03C2F200039F
:10486000FA6853F82230F969BA6911437A69114339
:104870003A690A431A644FF00100FCF783FC07F120
:104880002007BD4680BD00BF80B586B000AFF86090
:10489000B9607A603B60F868FFF758FE78614FF4C2
:1048A0003043C4F202034FF400721A604FF43043F5
:1048B000C4F20203BA68DA604FF43043C4F2020370
:1048C0007A68DA634FF43043C4F202037A6A1A61F9
:1048D0004FF43043C4F202037A6A1A644FF430434F
:1048E000C4F202037A69DA614FF43043C4F202037E
:1048F0003A684FEA024211463A6A92B20A435A644F
:104900004FF43043C4F202034FF43042C4F20202C7
:10491000126842F001021A6000BF4FF43043C4F243
:1049200002031B6803F00103002BF6D107F11807FF
:10493000BD4680BD80B586B000AFF860B9607A60D2
:104940003B60F868FFF702FE78614FF43043C4F231
:1049500002034FF40072C0F203021A604FF43043B6
:10496000C4F202037A6A9A634FF43043C4F202033A
:10497000BA68DA634FF43043C4F202033A6A1A6445
:104980004FF43043C4F202037A695A634FF4304360
:10499000C4F202037A684FEA024211463A6892B2C0
:1049A0000A435A644FF43043C4F202034FF43042D6
:1049B000C4F20202126842F001021A6000BF4FF412
:1049C0003043C4F202031B6803F00103002BF6D14D
:1049D00007F11807BD4680BD80B500AF4FF001005C
:1049E000FCF7AAFB80BD00BF80B592B000AF786035
:1049F00007F108024FF0400310464FF000011A463D
:104A000010F0AAFF7B68012B00F23B8140F2AC73EF
:104A1000C2F200031B68002B2DD140F2AC73C2F22E
:104A200000034FF001021A604FF001004FF0010146
:104A3000FCF77CFC4FF058004FF00001FFF758FDE9
:104A40004FF05800FFF738FD4FF400704FF00101B0
:104A5000FBF70AFF4FF05A004FF00001FFF748FD47
:104A60004FF05A00FFF728FD4FF43043C4F2020321
:104A70004FF002029A60786807F086FB024640F227
:104A8000B073C2F200031A60786807F080FB024638
:104A900040F2B473C2F200031A604FF01E03BB6011
:104AA00040F2B073C2F200031B6803F11D03FB6008
:104AB0004FF004033B6140F2B473C2F200031B6881
:104AC00003F103037B617868FFF740FD024640F283
:104AD000B873C2F200031A6040F2B873C2F2000366
:104AE0001B68BB614FF0FF03FB614FF000033B62AB
:104AF0004FF000037B624FF00003BB624FF00003F6
:104B0000FB6240F2B073C2F200031B68786819467A
:104B1000FFF786FD024640F2BC73C2F200031A6042
:104B20004FF480633B634FF005037B6340F2BC733B
:104B3000C2F200031B6803F10303FB6340F2BC7382
:104B4000C2F200031B683B6440F2B473C2F200037C
:104B50001B687B6445F6A053C0F601037A6853F8DE
:104B60002230BB6340F2BC03C2F200037A6853F800
:104B7000222007F1080310461946FCF713FB78685A
:104B800007F00EFB024640F2C073C2F200031A6047
:104B900040F2C073C2F200031B68082B0CDC40F229
:104BA000BC03C2F200037A6853F8223018464FF073
:104BB0000101FFF773FD54E040F2C403C2F20003A9
:104BC0007A6853F8222047F6B463C0F601039A428C
:104BD00047D140F2BC03C2F200037A6853F8223096
:104BE00018464FF00101FFF759FD40F2C473C2F2BD
:104BF00000034FF000021A602CE047F6CC63C0F6C9
:104C000001035A6840F2C473C2F200031B681846DD
:104C10009047024640F2C873C2F200031A6040F2A5
:104C2000C873C2F200031A6840F2C473C2F20003F0
:104C30001B68786811461A46FFF7E4FD40F2C4731A
:104C4000C2F200031B6803F1010240F2C473C2F216
:104C500000031A6040F2C473C2F200031B68FF2B0A
:104C6000CBDD40F2BC03C2F200037A6853F8223075
:104C700018464FF00101FCF73DFB4FF00100FCF737
:104C800081FA07F14807BD4680BD00BF80B485B0FA
:104C900000AF786040F2A073C2F200037A6853F864
:104CA000222040F2A473C2F20003796853F8213045
:104CB00003FB02F240F2A873C2F20003796853F8D2
:104CC000213003FB02F3FB60FB68184607F1140771
:104CD000BD4680BC704700BF90B58BB002AFF86096
:104CE000B9607A60F868FFF7D1FFF86145F6A05324
:104CF000C0F60103FA6853F82220BB68F96901FB8A
:104D000003F3D318BB6145F6A053C0F60103FA685C
:104D100053F822207B68F96901FB03F3D3187B6108
:104D2000B9697A6940F2A073C2F20003F86853F8D7
:104D3000204040F2A473C2F20003F86853F8203018
:104D400000934FF000030193F8682346FFF79CFDA2
:104D500007F12407BD4690BD80B58AB002AFF86068
:104D6000B9607A603B60F868FFF790FFF86145F63C
:104D7000A053C0F60103FA6853F8222040F2A07352
:104D8000C2F20003F96853F82130796801FB03F19E
:104D9000BB68C91840F2A873C2F20003F86853F860
:104DA000203003FB01F3194640F29C73C2F200036A
:104DB000F86853F82030F86900FB03F3CB18D318D8
:104DC000BB6145F6A053C0F60103FA6853F82220F0
:104DD00040F2A073C2F20003F96853F82130B96AB7
:104DE00001FB03F13B68C91840F2A873C2F200034B
:104DF000F86853F8203003FB01F3194640F29C7326
:104E0000C2F20003F86853F82030F86900FB03F39E
:104E1000CB18D3187B61B9697A6940F2A073C2F2EA
:104E20000003F86853F82000FB6AC31A386B00903F
:104E30000193F868FB6AFFF727FD07F12007BD46DD
:104E400080BD00BF80B58AB002AFF860B9607A60FB
:104E50003B6008F04DFE0346012B16D1F8684FF079
:104E600019014FF0000206F01EFFB86879683A6831
:104E7000BB6A07F0D9FBF8684FF0190144F64562A8
:104E8000C0F6000206F00FFF4CE03A68BB68D31A88
:104E900003F10103FB61BA6A7B68D31A03F10103D2
:104EA000BB61F868FFF7F2FE786145F6A053C0F6E3
:104EB0000103FA6853F8222040F2A073C2F2000303
:104EC000F96853F82130796801FB03F1BB68C91810
:104ED00040F2A873C2F20003F86853F8203003FBD5
:104EE00001F3194640F29C73C2F20003F86853F8CC
:104EF0002030786900FB03F3CB18D3183B613A6983
:104F000040F2A073C2F20003F96853F82110FB6964
:104F1000CB1A0093FB6A0193F8681146FA69BB69E2
:104F2000FFF708FD07F12007BD4680BD80B400AF44
:104F30004FF43043C4F202034FF002029A60BD46C0
:104F400080BC704780B582B000AF4FF4D043C4F24C
:104F500001034FF00102DA634FF000037B6078E059
:104F600040F29873C2F200037A6853F82230002BA3
:104F70006BDB45F6A053C0F601037A6853F8222094
:104F800040F2A073C2F20003796853F8211040F296
:104F9000A473C2F20003786853F8203003FB01F1D8
:104FA00040F29873C2F20003786853F8203003FB94
:104FB00001F140F2A873C2F20003786853F8203080
:104FC00003FB01F3D3183B6040F2BC03C2F20003C1
:104FD0007A6853F822309B6A40F2BC03C2F20003A5
:104FE0007A6853F822304FF000029A6240F2BC0314
:104FF000C2F200037A6853F822303A689A624FF09E
:105000000100FCF7BFF840F29873C2F200037A681F
:1050100053F822307868194608F026FD40F298735C
:10502000C2F200037A6853F8221040F29C73C2F275
:1050300000037A6843F8221040F29873C2F200032A
:105040007A684FF0FF3143F822107B6803F10103C7
:105050007B607B68002B83DD07F10807BD4680BDC0
:1050600090B593B000AFF860B9607A604FF000037C
:105070007B64BB6803F1FF330D2B00F2F48001A2C7
:1050800052F823F0BD50000867520008C7500008CE
:10509000355100084F5100086F520008995100081F
:1050A0007F51000855510008E5510008675200087B
:1050B000F9510008235200081D510008FB681846EA
:1050C000FFF792FCD4E07B683B6440F2BC03C2F281
:1050D0000003FA6853F8222045F6A053C0F60103F6
:1050E000F96853F821103B6C586840F2A073C2F283
:1050F0000003FC6853F8243003FB00F040F2A8736F
:10510000C2F20003FC6853F8243003FB00F3CB1811
:1051100093624FF00200FCF735F8A9E07B68FB636F
:10512000FB6B196840F29873C2F20003FA6843F807
:1051300022109DE07B68BB63F968BB6B1A68BB6B90
:105140001B79084611461A46FFF75CFB90E0FFF713
:1051500043FC8DE07B687B6340F2BC03C2F200033A
:10516000FA6853F822207B6B1B68002B0CBF0023CE
:105170000123DBB210461946FCF7BCF878E07B68E7
:105180003B63F9683B6B1A683B6B5B6808461146EA
:105190001A46FFF7A5FA6BE007F1180207F11403AE
:1051A000F86811461A4608F029FB7B68FB62FB6A27
:1051B000196840F2A073C2F20003FA6843F82210A3
:1051C000FB6A596840F2A473C2F20003FA6843F81C
:1051D0002210F968BA697B69084611461A46FFF73A
:1051E0007FFA45E07B68BB62FA68BB6A1B681046C1
:1051F0001946FFF7DDFA3BE07B687B6240F2BC03B7
:10520000C2F20003FA6853F822207B6A1B68002B65
:105210000CBF00230123DBB210461946FFF71CFA2E
:1052200026E07B683B623B6A1B6803F47F034FEA1E
:1052300013423B6A1B6803F47F431A433B6A1B68B3
:10524000DBB24FEA03431343FB6140F2BC03C2F2FB
:105250000003FA6853F82230FA69DA604FF002006E
:10526000FBF790FF04E04FF0FF337B6400E000BFEA
:105270007B6C184607F14C07BD4690BD80B582B0E7
:1052800000AF47F67840C0F6010047F65461C0F61B
:1052900001014FF000024FF0000309F003FD4FF051
:1052A00000004FF0F0014FF4A07206F08BFC4FF0BD
:1052B00000004FF0F0014FF4A07206F06CFC4FF0CC
:1052C00000037B6045E040F29873C2F200037A6805
:1052D0004FF0FF3143F8221045F6A053C0F601030A
:1052E0007A6853F822307868194606F03FFC7868EF
:1052F00006F056FF03464FEAE30140F2A873C2F2FC
:1053000000037A6843F8221078684FF0210144F6D0
:10531000D942C0F6000206F0C6FC78684FF02301BF
:1053200044F65952C0F6000206F0BDFC7868FFF75B
:105330000DF90346042B08D878684FF0190144F69C
:105340004562C0F6000206F0AEFC7B6803F1010383
:105350007B607B68002BB6DD07F10807BD4680BD8A
:1053600080B582B000AF4FF00003FB80FBF7A6FAD8
:1053700000F08EF90346FB80FA8840F611039A424A
:1053800002D04FF000030BE000F0B4F84FF0010042
:105390004FF0010100F0C8F800F000F94FF00103F0
:1053A000184607F10807BD4680BD00BF80B586B02E
:1053B00000AF4FF082004FF04001FBF709FB0346BE
:1053C000FB82B7F91630002B02DA4FF000038BE0B6
:1053D000FB8A03F08003002B07D149F68C23C2F22D
:1053E00001034FF001021A7006E049F68C23C2F265
:1053F00001034FF000021A7049F68C23C2F2010338
:105400001B78002B48D100F0B3F903463B6100F054
:10541000EDF90346FB6040F2CC73C2F200031B6857
:105420003A699A4207D940F2CC73C2F200031B6872
:105430003A69D31A06E040F2CC73C2F200031A684C
:105440003B69D31ABB6040F2D073C2F200031B6801
:10545000FA689A4207D940F2D073C2F200031B687F
:10546000FA68D31A06E040F2D073C2F200031A6859
:10547000FB68D31A7B60BA687B68D318052B0BD9FD
:1054800040F2CC73C2F200033A691A6040F2D07362
:10549000C2F20003FA681A6040F2CC73C2F2000351
:1054A0001B689AB249F68C23C2F201035A8040F27B
:1054B000D073C2F200031B689AB249F68C23C2F281
:1054C00001039A804FF082004FF04B014FF0010230
:1054D000FBF7CEFB4FF082004FF04B014FF0000284
:1054E000FBF7C6FB4FF00103184607F11807BD464E
:1054F00080BD00BF80B500AF4FF082004FF00301C8
:105500004FF00202FBF7B4FB4FF45460C0F203000B
:10551000FBF79EFC4FF082004FF003014FF00002BA
:10552000FBF7A6FB80BD00BF80B584B000AF02468C
:105530000B46FA71BB714FF00003FB734FF0820012
:105540004FF00401FBF744FA0346BB81B7F90C3076
:10555000002B02DA4FF001031BE0BB89FB73BB7920
:10556000002B08D0FB796FEA0303DAB2FB7B134010
:10557000DBB2FB7303E0FA7BFB791343FB73FB7B2A
:105580004FF082004FF004011A46FBF771FB4FF019
:105590000003184607F11007BD4680BD80B500AF77
:1055A0004FF002004FF00101FFF7BEFF4FF0820005
:1055B0004FF020014FF04902FBF75AFB4FF45460C3
:1055C000C0F20300FBF744FC4FF082004FF02101D2
:1055D0004FF00102FBF74CFB4FF01E004FF00001B3
:1055E00000F08CF84FF082004FF041014FF09A022A
:1055F000FBF73EFB4FF082004FF04A014FF00102F3
:10560000FBF736FB4FF082004FF04B014FF00102E9
:10561000FBF72EFB4FF082004FF04B014FF00002E2
:10562000FBF726FB4FF082004FF056014FF00102CE
:10563000FBF71EFB4FF082004FF058014FF00102C4
:10564000FBF716FB4FF082004FF040014FF00302D2
:10565000FBF70EFB4FF082004FF00B014FF0FF0203
:10566000FBF706FB49F68C23C2F201034FF001025F
:105670001A7049F68C23C2F201034FF000025A80DF
:1056800049F68C23C2F201034FF000029A8080BDDC
:1056900080B582B000AF4FF00003FB804FF0820076
:1056A0004FF00001FBF794F90346BB804FF08200F6
:1056B0004FF00101FBF78CF903467B80B7F904300A
:1056C000002B02DA4FF0000313E0B7F90230002B91
:1056D00002DA4FF000030CE0BB88FB80FB884FEA46
:1056E0000323FB80FB881A467B8813439BB2FB8015
:1056F000FB88184607F10807BD4680BD80B584B019
:1057000000AF02460B46FA71BB714FF00003FB730A
:105710004FF082004FF01701FBF75AF90346BB81A7
:10572000B7F90C30002B02DA4FF001031BE0BB8904
:10573000FB73BB79002B04D0FA7BFB791343FB731B
:1057400007E0FB796FEA0303DAB2FB7B1340DBB2BD
:10575000FB73FB7B4FF082004FF017011A46FBF7FB
:1057600087FA4FF00003184607F11007BD4680BDC9
:1057700080B582B000AF4FF04D0000F067F80346EF
:105780007B607A6840F6B8339A4206DC7B68C3F5E2
:10579000716303F10E037B6005E07B68C3F56D6305
:1057A00003F108037B607B6848F68902C8F688022B
:1057B00082FB0312D2184FEAE2024FEAE373D31AD4
:1057C0003B603B68002B03DC4FF000033B6005E0CF
:1057D0003B68EF2B02DD4FF0EF033B603B689BB271
:1057E000184607F10807BD4680BD00BF80B582B0EE
:1057F00000AF4FF04F0000F029F803463B603B68D4
:10580000A3F5B4733B603A684AF2E923C2F68B63AE
:1058100083FB02134FEA63014FEAE273CB1A7B600A
:105820007B68002B03DC4FF000037B6007E07A68A5
:1058300040F23F139A4202DD40F23F137B607B68E7
:105840009BB2184607F10807BD4680BD80B584B0FD
:1058500000AF78604FF00003FB817B68DBB24FF054
:1058600082001946FBF7B4F80346BB817B68DBB2C4
:1058700003F10103DBB24FF082001946FBF7A8F8F1
:1058800003467B81B7F90C30002B02DA4FF000039E
:1058900011E0B7F90A30002B02DA4FF000030AE0FA
:1058A000B7F90C304FEA03239BB21A467B891343A6
:1058B0009BB2FB81FB89184607F11007BD4680BDEE
:1058C00080B400AF49F69C23C2F201031B6818465E
:1058D000BD4680BC704700BF80B400AFBD4680BCF1
:1058E000704700BF80B483B000AF786007F10C0749
:1058F000BD4680BC704700BFF0B587B0B0F90C70F2
:10590000B0F90E60B0F91050B0F90AE00091022130
:105910000191448A0294B0F90810039144680494F8
:105920008469F9180EEB0200059432462B4600F00C
:1059300065F807B0F0BD30B54568044685B0284627
:1059400021460AF097FE002855D023680C2B10D072
:105950000F2B1BD00B2B4BD1284609F02FFF04AD8A
:1059600045F80C0D44300AF079F9284609F034FF67
:105970003EE0E16829B10A7A002A0CBF0221012128
:1059800000E00321284602F063FE31E0284609F0DA
:1059900015FF0090806B07F017F90098406B07F037
:1059A000C9FE284602F01CFC28B90099C86B07F014
:1059B00003F909F0F1FA009A536CABB1022007F039
:1059C0009DFE02A803F00AF90098406C09F0F6FE6B
:1059D000009B0190B3F9482093F8403002A908F0E9
:1059E00097FE01A809F0F8FE684609F0F5FE02E00E
:1059F000204604F05FFA05B030BD0000F0B587B076
:105A00000C9D109C00950D9D45F0010501951D4DC7
:105A10000295119D2035039503F0E4FE054668B319
:105A20000CB9002713E0204610F0AEF801300AF060
:105A30002AF907460028F4D009F0C0FE06AE214638
:105A400046F8040D10F042F8304609F0C5FE28462D
:105A500009F0B4FE06AE0F99059000220AF002FE8E
:105A600056F8044D0E9B0848A4F848300FC86764E8
:105A7000343484E80F00304609F0AEFE284607B003
:105A8000F0BD00BF37590008C8000020F0B587B04E
:105A9000B0F90C70B0F90E60B0F91050B0F90AE02E
:105AA000009100210191448A0294B0F908100391F9
:105AB0008469F9180EEB0200049432462B4600F07C
:105AC00003F807B0F0BD00002DE9F04186B00C9C52
:105AD00000940D9C44F0010401941B4C0294109C12
